:10000000800B0020C11500000D3A0000F115000022
:10001000F1150000F1150000F115000000000000CE
:100020000000000000000000000000001D1500009E
:10003000F115000000000000C9140000E7390000BD
:100040008115000081150000811500008115000058
:100050008115000081150000811500008115000048
:100060008115000081150000811500008115000038
:100070008115000081150000811500008115000028
:100080008115000081150000811500008115000018
:100090008115000081150000811500008115000008
:1000A00081150000811500008115000081150000F8
:1000B00081150000811500008115000081150000E8
:1000C00081150000811500008115000081150000D8
:0C00D00081150000811500008115000062
:1000DC0053B94AB9002908BF00281CBF4FF0FF31A3
:1000EC004FF0FF3000F06CB9ADF1080C6DE904CEA7
:1000FC0000F006F8DDF804E0DDE9022304B07047F7
:10010C002DE9F047089E0D4604468E46002B40F024
:10011C0082808A42174646D9B2FA82F24AB1C2F1BB
:10012C00200105FA02F320FA01F1974041EA030E8F
:10013C0094404FEA1748230CBEFBF8FCB9B208FBFD
:10014C001CEE43EA0E430CFB01F098420AD9FB1853
:10015C000CF1FF3580F01681984240F21381ACF11E
:10016C00020C3B441B1AA4B2B3FBF8F008FB10338F
:10017C0044EA034400FB01F1A14209D93C1900F106
:10018C00FF3380F00181A14240F2FE8002383C44F2
:10019C00641A40EA0C4000211EB1D4400023C6E989
:1001AC000043BDE8F08702B9FFDEB2FA82F2002A02
:1001BC004FD1CB1B4FEA174E1FFA87F80121B3FB27
:1001CC00FEFC250C0EFB1C3345EA034508FB0CF327
:1001DC00AB4207D97D190CF1FF3002D2AB4200F2D1
:1001EC00E7808446ED1AA3B2B5FBFEF00EFB10556A
:1001FC0043EA054408FB00F8A04507D93C1900F177
:10020C00FF3302D2A04500F2D7801846A4EB0804B5
:10021C0040EA0C40C0E78B4208D9002E00F0AF80BA
:10022C000021C6E900050846BDE8F087B3FA83F162
:10023C0000294BD1AB4202D3824200F2B780841A20
:10024C0065EB030301209E46002EAAD0C6E9004EA2
:10025C00A7E7C2F1200C01FA02F3974020FA0CF048
:10026C004FEA174E21FA0CFC1843BCFBFEF1050CAF
:10027C000EFB11CC1FFA87F845EA0C4501FB08F37D
:10028C00AB4204FA02F409D97D1901F1FF3C80F06C
:10029C008B80AB4240F2888002393D44EB1A85B228
:1002AC00B3FBFEF00EFB103345EA034500FB08F3ED
:1002BC00AB4207D97D1900F1FF3C71D2AB426FD92B
:1002CC0002383D44EB1A40EA014178E7C1F1200CB9
:1002DC008B4022FA0CF71F4320FA0CF405FA01F3B9
:1002EC004FEA174E25FA0CF51C43230CB5FBFEF90F
:1002FC001FFA87F80EFB195543EA054509FB08FA66
:10030C00AA4502FA01F200FA01F308D97D1909F1A4
:10031C00FF3047D2AA4545D9A9F102093D44A5EBC6
:10032C000A05A4B2B5FBFEF00EFB105544EA0544D9
:10033C0000FB08F8A04507D93C1900F1FF352DD278
:10034C00A0452BD902383C4440EA0940A4EB0804F0
:10035C00A0FB02894C45C6464D4619D316D05EB15A
:10036C00B3EB0E0264EB050404FA0CFCCA404CEA35
:10037C000202CC40C6E900240021BDE8F0873146DA
:10038C0030460EE7AC46EDE6184601E74345E6D2AB
:10039C00B8EB020E69EB07050138E0E72846D3E716
:1003AC0060468FE78146BAE7614677E708464BE738
:1003BC00ACF1020C3D4415E702383C4426E700BF83
:1003CC00704700BF014803F077B800BF2841000018
:1003DC000B6801330B60014B1B68184700000020B1
:1003EC00014B1860704700BF0000002007B50B469A
:1003FC00002102460191034801A900F0EBF803B07B
:10040C005DF804FBDD0300002DE9F84FB0F81890FF
:10041C0019F00808044693460DD001290CBF49F089
:10042C00100949F02009A0F818908BF31188BFF33C
:10043C006F8FBDE8F88F09F00709022907D1204614
:10044C0003F047F80028F0D00128238B50D16769BE
:10045C00218B002F15DA256821F00701C4E90088EB
:10046C0041F0010121830026218B01F0070ACA45C6
:10047C0002D0A368002B5CD10DB9002E74D00023E0
:10048C0058E001F007035A1F012A20D821F0070178
:10049C00062B256889B2C4E900880CD1002D2B46A7
:1004AC0038BF00232BB1628B1B6801326283002B97
:1004BC00F8D141F002012183204603F00AF80646E8
:1004CC000028D1D0238B43F020032383CBE7042BCC
:1004DC000CD121F0070189B22183204602F0F9FFEB
:1004EC0005460028BFD041F0200121830025BAE742
:1004FC00032809D1226923F00703166843F0060389
:10050C00238300252F46AFE7042806D1226923F068
:10051C000703566843F00403F2E7052806D1226965
:10052C0023F00703966843F00503E9E700252E4600
:10053C00E8E7012341F0080121838BF31188BFF315
:10054C006F8F03BB002D33D116B121492046B04724
:10055C004FF02003EFF3118B83F31188BFF36F8FF0
:10056C00238B23F008032383238BDA0628D523F06F
:10057C00100323830121B4F8189009F0070900290E
:10058C007FF45BAF51E7A1680029DBD00B68D1F891
:10059C0004B0002B38BF0023994652463B462046F8
:1005AC00D847B9F1000FCDD0D9F800304946EEE765
:1005BC0029463B46524620462D6802F0A6FFC1E76D
:1005CC0013F020011EBF23F0200323830221D2E766
:1005DC00433500002DE9F04F91B08B4602909246C6
:1005EC001C4600259AF8000008B928465EE3252829
:1005FC000AF1010707D0029B594698470028C0F220
:10060C005583013510E2182200210AA803F050FA94
:10061C009AF80130252B78D000229446164696463F
:10062C001046394617F8013B2B2B00F09D8000F249
:10063C009480202B00F09B80232B00F09A8028B113
:10064C009DF8300040F004008DF83000BEF1000F32
:10065C0005D09DF8300040F008008DF830002EB128
:10066C009DF8300040F010008DF83000BCF1000F08
:10067C0005D09DF8300040F020008DF830002AB1F4
:10068C009DF8302042F040028DF830209DF830204B
:10069C0002F04400442803D16FF386128DF8302009
:1006AC009DF830202A2B42F080028DF830207BD12F
:1006BC009DF8312042F001024B1C8DF831201A7844
:1006CC002E2A9DF831200CBF0121002161F341023B
:1006DC008DF8312074D15A782A2A6AD0013300213E
:1006EC000A26184610F8012BA2F13007092F40F208
:1006FC008E809DF830200E91C2F3400040EAD171FB
:10070C0061F341028DF830205AE00AF102078DF8AE
:10071C0033309DF83130D90740F1498154F8049BAE
:10072C00B9F1000F07DA9DF8302042F004028DF881
:10073C003020C9F100095A0740F1428154F8048B6A
:10074C00B8F1000F80F241819DF831306FF3410315
:10075C008DF831304FF0FF3837E12D2B0CD0302B8A
:10076C007FF46DAF01225CE74FF0010E59E70126D3
:10077C0057E74FF0010C54E7012052E70CFB020243
:10078C00303A33461E4616F8010BA0F13007092FFC
:10079C00F4D9994293D09DF830100D92D20F62F398
:1007AC0041018DF830108AE70B4600224FF00A0CFD
:1007BC00E8E79DF8312042F004028DF83120023335
:1007CC001F4617F8012B6C2A41D025D8682A2BD04C
:1007DC006A2A46D04C2A4CD01F4617F8012B9DF89C
:1007EC0031308DF83320782A00F2D980572A4DD831
:1007FC00412A03D0453A022A00F2D1809DF83230CA
:10080C00042262F302038DF8323001239EE006FBD2
:10081C0001213039034664E7742A26D07A2ADBD1C9
:10082C009DF8313006220DE05A78682A9DF8312067
:10083C0006D1012161F3C6028DF831209F1CCCE753
:10084C001346022262F3C6038DF83130C5E75A789D
:10085C006C2A9DF8312001D10421EBE713460322C9
:10086C00F0E79DF831300522ECE79DF83130072296
:10087C00E8E7BDF8303023F4F04323F0020343F4EF
:10088C00804343F00203ADF83030A6E7A2F15801E3
:10089C00202900F2848001A050F821F06D0900009D
:1008AC00AB090000AB090000AB090000AB0900006C
:1008BC00AB090000AB090000AB090000AB0900005C
:1008CC0009080000AB0900006D0900002D090000AB
:1008DC00090800000908000009080000AB09000025
:1008EC002D090000AB090000AB090000AB090000AA
:1008FC00AB090000750900006D09000091090000AA
:10090C00AB090000AB09000091090000AB09000025
:10091C006D090000AB090000AB0900006D09000077
:10092C009DF83210012003F0780360F30201402B94
:10093C008DF8321002BF9DF8301041F001018DF896
:10094C003010632A31D1003B18BF01239DF83020B1
:10095C00C2F340010B4363F341028DF83020D8E61B
:10096C009DF832100220DEE79DF8322003F0780368
:10097C00A3F14000032161F3020243428DF83220BF
:10098C004341E3E79DF83220032113F0780F61F324
:10099C0002028DF8322014BF01230023D6E79DF804
:1009AC00303043F001038DF830300023CEE79DF951
:1009BC003020002AB4BFDDF834904FF0FF39BAE68E
:1009CC009B077FF5C7AEDDF838809DF831200023FA
:1009DC00CDE90D339DF8323003F00703012BC2F340
:1009EC00C30236D1D31E042B20D8DFE803F0030753
:1009FC00071F1F0054F8040BC11704E0073424F040
:100A0C000704F4E80201CDE90A019DF8303013F037
:100A1C00030654D002983B465246594602F035FF25
:100A2C000028C0F243810544BA46DBE554F8040BB8
:100A3C00012A4FEAE071CDE90A0105D19DF8283071
:100A4C000A9300230B93E0E7022ADED1BDF92800BC
:100A5C00D2E7022B23D1D31E042B13D8DFE803F0EB
:100A6C00030A0A12120020680A900021231D0B9120
:100A7C001C46CAE7073424F00703F3E80201CDE96A
:100A8C000A01F5E754F8043B0A93012A4FF00003DE
:100A9C000B93D3D0022AB8D1BDF82830D0E7042B61
:100AAC0007D1073424F00704F4E80201CDE90A0168
:100ABC00ABE7032B04BF54F8043B0A93A5E79DF85E
:100ACC0033007828B0D8622822D825283FF493AD7B
:100ADC005828A9D10DF126030093DDE90A0104ABD6
:100AEC000CAA02F087FE8246B8F1000F0DF1260029
:100AFC000CDB9DF83020A0EB0A036FF386129845AF
:100B0C008DF8302002D9A8EB03030D9380463DE00D
:100B1C006338152888D801A151F820F0A90B0000E2
:100B2C000D0C0000350A0000350A0000350A0000E3
:100B3C00350A00000D0C0000350A0000350A0000D3
:100B4C00350A0000350A00006B0C0000390C00005F
:100B5C003D0C0000350A0000350A0000810B000036
:100B6C00350A0000390C0000350A0000350A000077
:100B7C00390C0000B8F1000FDDF828A00ADB414663
:100B8C00504602F055FF0AEB00080026BAF1000FA0
:100B9C000CD149E7504602F044FFF4E70A9B8DF86C
:100BAC00103000260DF111080DF1100AA8EB0A0304
:100BBC0006B101339DF83220D0066BD502335206B4
:100BCC000D9948BF0E9A0B4448BF9B18B9F1000F02
:100BDC0079DD9DF83020A9EB0309C2F38003039360
:100BEC00530770D4500664D546B1029B5946304623
:100BFC00984700285ADB039B01351E46302359E0E9
:100C0C001E0711D413F0100618BF2026DDE90A23A5
:100C1C00002A73F10001BFF65DAF524263EB430350
:100C2C00CDE90A232D2655E72B26EFE7002651E7C1
:100C3C000A9848B30DF1260300930CAA04AB0021CB
:100C4C0002F0D8FDBDF8323003F0EF0343F4F0436B
:100C5C0043F010038246ADF83230002644E70A9B7D
:100C6C00072A3FF6E1AEDFE802F00D04060D080896
:100C7C000D0D1D70D8E61D80D6E62846E917C3E990
:100C8C000001D1E61D60CFE6DFF8C4800646A8F16E
:100C9C00050A8BE7110748BF013390E71846039309
:100CAC005946029B98470028039B04DA11B0BDE813
:100CBC00F08F20234D444A46002AA5EB090109F187
:100CCC00FF39EBDC0D4636B1029B5946304698474E
:100CDC000028EBDB01359DF83230D90601D41A0718
:100CEC0006D5029B5946302098470028DEDB01359B
:100CFC009DF83230DB0607D59DF83300029B594630
:100D0C0098470028D2DB01350D9E2E44731B002B17
:100D1C0016DC029843465246594602F0B6FD0028AE
:100D2C00C4DB0544A944A9EB0503002B7FF77CAE7B
:100D3C00029B5946202098470028B7DB0135F2E783
:100D4C00029B5946302098470028AFDB0135DDE780
:100D5C003B41000010B50748074C01F0A9FC074BBC
:100D6C001860204600F024FE2046FFF739FB0020D7
:100D7C0010BD00BF3C4100008D0D0000780100202B
:100D8C000A2838B5074D044604D1286883680D211C
:100D9C005B68984728688368E1B25B68984720468F
:100DAC0038BD00BF780100200E4A70B5841AA3101C
:100DBC000D4C5C430546E4B20C2000FB04200E46AF
:100DCC004021084402F081FD011E05DB074B03EBBB
:100DDC00C40463689847002128463346BDE8704038
:100DEC00184700BF8C010020B76DDBB67C400000BB
:100DFC002DE9F041104E841BA310104C5C43E4B25F
:100E0C000C256543804605F140000F4630444021D7
:100E1C0002F074FD011E09DB094A7319C3E90E27A0
:100E2C00084B53F83430BDE8F041184740463B4678
:100E3C00BDE8F041184700BF8C010020B76DDBB650
:100E4C006B3900007C400000002270B50121044683
:100E5C00104600F0A9FA002000F088FA0F4801F0C3
:100E6C0085FA0F4B984215D102F002FFE6680D4946
:100E7C00304602F07DFB00280BDB01253564E4686D
:100E8C00084904F11C0002F073FB002801DBE56447
:100E9C00002070BD6FF00400FBE700BFE90E0000FE
:100EAC000000AD0B8C40000001460C2309484B435D
:100EBC0070B5C418D4E90E5600224033A26318440E
:100ECC0002F03AFD2DB132462B460348BDE8704086
:100EDC00184770BD8C0100202800002010B101289B
:100EEC0004D07047034B1B6C5B0701D1FFF7DCBFD1
:100EFC00704700BF8C01002008B54FF02003EFF3C2
:100F0C00118183F31188BFF36F8F124A136843F07A
:100F1C00020013F0010310600CD04FF08042D2F8A5
:100F2C000C34D2F80C2413F0010303D00A4802F05D
:100F3C0003FD012381F31188BFF36F8F23B1BDE84B
:100F4C0008400020FFF7B0BFBDE80840012001F0C9
:100F5C001DBA00BFDC010020CC01002010B5074CED
:100F6C0023782BB94FF4A57002F05BFF012323709B
:100F7C00BDE81040002001F009BA00BF6403002056
:100F8C00094BBFF35B8F53E8002F22F0020143E8BB
:100F9C0000100028F7D1BFF35B8FD30702D40120D8
:100FAC0001F040BA704700BFDC0100201FB50022E1
:100FBC000123CDE90223094ACDF800D06B46CDF8C8
:100FCC0004D002F0EFFC002805DB4FF48042002334
:100FDC00684601F0E5FF05B05DF804FB83390000BD
:100FEC002DE9F8433A49BFF35B8F0646012251E8DD
:100FFC00003F41E800200028F9D1BFF35B8F33B9E3
:10100C00344935484B60CB608A6002F0C4FA731ED9
:10101C00012B32D8012E07D14FF08043D3F81C346A
:10102C0003F00303012B28D002F0F5FE044618B997
:10103C002A4B1B78002B44D14FF02003EFF3118582
:10104C0083F31188BFF36F8F0124254FDFF8948051
:10105C00DFF894904FF08042D2F81834D2F818246C
:10106C00D2030CD503F00303012B01D0012E06D1C2
:10107C000CB385F31188BFF36F8FBDE8F883ACB167
:10108C00284600F069FA4FF08042D2F81835002B50
:10109C00E0D139680029DDD03B603B680123C2F800
:1010AC001835C8F88031C9F80030D3E70021212069
:1010BC0001F02EFFE7E74FF080430222C3F8042330
:1010CC00DBE74FF080430222C3F808230546BCE758
:1010DC00E00100207C010020A801002077070020FF
:1010EC000401004000E100E008000040044A1368DD
:1010FC00C81A20F07F400344136002F025B900BFEA
:10110C00F00100202DE9F047860006F1804600F141
:10111C00500406F58836A400DFF87C80D6F84035FC
:10112C00A4B204F180444FF4803721F07F4504F5DC
:10113C0088348740C146D8F804A5A3EB0A0323F0F2
:10114C007F432AF07F42012BC6F8402502D11320A1
:10115C0002F067FE0AF10202AB1A23F07F43B3F5EB
:10116C00000F88BF1546002323602368C9F8447319
:10117C0025F07F43C6F84035D9F804359A4506D09A
:10118C00EB1A023B23F07F43B3F5000F01D8BDE807
:10119C00F0872B46CFE700BF00100140F8B5104E8A
:1011AC00104F0025104B00201C681A4605B1F8BDE5
:1011BC00D6F80413C903FAD539680029F7D03D6075
:1011CC0039684FF48031C6F84813D6F8401501251C
:1011DC001CB15A681860A047E4E71460E7E700BF49
:1011EC000010014040110140E401002038B5104DC1
:1011FC0000244FF48033C5F80845C5F804330D4B73
:10120C004FF40032C3F8802101212246112000F056
:10121C00CBF8112000F0AAF8074A01231360074A03
:10122C002B6002201360FFF7DBFE204638BD00BFA9
:10123C000010014000E100E008100140EC0100202A
:10124C00134BB0F1FF3F08BF1846013800281CDDD6
:10125C009842A8BF18460F4BD3F804250E4B1968BB
:10126C00521A12F4000F22F07F4318BF00200B4AD1
:10127C00013303440A48106000205060044A934232
:10128C0094BFC9188918FFF73DBF0020E3E700BFE2
:10129C00FFFF7F0000100140F0010020E40100205E
:1012AC00F91000004FF02002EFF3118382F3118844
:1012BC00BFF36F8F064AD2F80405064A1268801AEB
:1012CC0020F07F4083F31188BFF36F8F704700BF0E
:1012DC0000100140F001002010B5114C114AA26120
:1012EC000323C4E90433104BE36122664FF480639B
:1012FC000E4A0F492362626600231022E01DA3628E
:10130C006362E3622367E3666367A26602F07FFBB6
:10131C000849204602F07BFB2023A37110BD00BFBF
:10132C00F4010020534100007503002065030020E8
:10133C005C41000060410000094A0A499368096851
:10134C00D967094998674B6843F080534B60002379
:10135C0083F31188BFF36F8F9368D86F704700BF0A
:10136C00200300202441000000ED00E043B2002BDC
:10137C0008DB012200F01F0002FA00F05B09024AB0
:10138C0042F82300704700BF00E100E0054B420922
:10139C0000F01F0053F82220012303FA00F0104044
:1013AC00704700BF00E100E043B2002BA8BF03F17F
:1013BC00604301F10101B8BF064B4FEA4111ACBFCC
:1013CC0003F5614300F00F00C9B2B4BF195483F8A0
:1013DC000013704714ED00E042F8203C009B42F8EB
:1013EC001C3C0A49019B42F8183C029B42F8143CF5
:1013FC0021F001014FF0807342F8043C42F8081CC4
:10140C000023203A82658367704700BF35360000A1
:10141C000B4A0346906890B113F1160F806E05D0FD
:10142C00A0F120029A4206D8834204D281422CBFFA
:10143C000021012100E00021002908BF0020704795
:10144C002003002008B504460E46154600F0F4F9BA
:10145C00084B20469C6000F0FBF9284686F309886F
:10146C00002163B681F31188BFF36F8F0022002334
:10147C0002F0DAF8200300200E4A08B50E4B22F0D9
:10148C007F029A60BFF34F8FBFF36F8FD3F8882022
:10149C0022F47002C3F88820EFF3148323F00403C2
:1014AC0083F3148801F05CF901F054FE00F096F916
:1014BC0001F07AF90000000000ED00E012498A68A2
:1014CC004FF038001044EFF3098C80E8F01F202017
:1014DC0080F31188BFF36F8F0C4F4FF000668A6A50
:1014EC008A603E60906F0023936780F3118804B587
:1014FC00104600F0ADF9BDE8044002F1380090E868
:10150C00F01F8CF3098870472003002004ED00E0E5
:10151C001EF0040F0CBFEFF30880EFF30980816914
:10152C0011F8021C0229FFD001B502F065FA01BDC9
:10153C00014910220A60704710ED00E072B640407D
:10154C0080F31188BFF36F8FBFF34F8F30BF62B63C
:10155C00BFF36F8F704700BF72B6494081F311889B
:10156C0020BF80F3118862B6704700BF30BFFFF711
:10157C00FDBF00BF01B572B60B4A506A00281EBFF2
:10158C000021516202F099FB62B6EFF30580A0F1E5
:10159C0010004FEAC0000549014409C99847BDE84D
:1015AC00014003490847000020030020203F0000B1
:1015BC000516000002F0A2FA202080F311880848DA
:1015CC004FF40261401880F30988EFF31480022174
:1015DC00084380F31488BFF36F8FFFF74DFF0000B3
:1015EC00000D0020EFF30880EFF3098101B572467E
:1015FC0000F076F801BD00BF044B9968986A8842E8
:10160C0003D003494FF080520A607047200300203A
:10161C0004ED00E038B5194B14469A6A9A6A9A6A36
:10162C000546900719D5586B9A6A120615D519B14B
:10163C009A6A22F080029A629A6A9A6A9A6AD10627
:10164C000ED49B6A9A070BD400200C4A936A43F081
:10165C00FF0393620023237038BD6FF01500EBE796
:10166C00064B5B681B05EFD52946FFF7D1FE00281A
:10167C00EAD080F309880220E7E700BF00ED00E024
:10168C000D4B9A6A9A6A9A6A920508D59A6B9A6A6D
:10169C00120404D518B19A6A22F400429A62064BDD
:1016AC009A6A9A6AD20558BF9A6A9A6A002042F4DA
:1016BC007F429A620870704700ED00E0074B9A6A0F
:1016CC009A6A9A6A9A6A9A6A9A6A9A6A6FEA024259
:1016DC006FEA12429A620020704700BF00ED00E0F2
:1016EC0070B5374B5B688AB00E46C3F30803002510
:1016FC0085F31188BFF36F8F02F07F41B1F17F4FFB
:10170C0011D102F00C0108290DD0110701D40646A5
:10171C0001250022033B8DF80720032B48D8DFE876
:10172C0003F0043F433C2E46F3E7254BDA6A92075D
:10173C003ED4DC6A14F0804409D028331B78F3B112
:10174C000DF1070201213046FFF764FF04469DF8B6
:10175C00073093B92022314602A802F07EF9099B8A
:10176C0045B3C3F3080222B96FEA53236FEA43234C
:10177C00099302A9204602F03DF90AB070BD114B45
:10178C001B782BB10DF107010120FFF779FFDDE785
:10179C000D4B188884B2002CD9D0FFF78FFFD5E7FA
:1017AC000DF107020021CEE70DF107010020ECE757
:1017BC000024CCE723F4FF7323F00103D8E700BF28
:1017CC0000ED00E029ED00E02AED00E0024A53694B
:1017DC0043F010035361704700ED00E00448002310
:1017EC002021C2180133272B82F80013F9D170473E
:1017FC0000E100E008B50E4B9B68834207D1EFF384
:10180C00058393B10B4A536843F08053536001F046
:10181C0015FA4FF02003EFF3118083F31188BFF317
:10182C006F8FBDE8084002F04ABA01F073FC00BFAC
:10183C002003002000ED00E0024B034A0348012185
:10184C0000F096B800000120000000209840000035
:10185C00826E054B203A1A60044A2021C3E901121A
:10186C001846012100F08EB89C02002000000B15D8
:10187C00F0B51E4F00268E4201DB1046F0BD4468C9
:10188C0084B353B104F1FF3C14EA0C0F18D11F2C94
:10189C0016D905681CEA050F12D1202C0568D0F862
:1018AC0008C0D2B20FD9B4F1004F0ED8013CB4FA33
:1018BC0084F4C4F11F046400072A4CEA040406D91A
:1018CC006FF01502D9E70824F6E73E24F4E725F07B
:1018DC001F05154345F0100544F00104BA60FD6086
:1018EC0001323C6101360C30C5E700BF90ED00E0E1
:1018FC00034B05225A60BFF34F8FBFF36F8F7047B6
:10190C0090ED00E0BFF35F8F014B00225A607047EF
:10191C0090ED00E013490868082810B51ED8FFF7B1
:10192C00F1FF114C49680022904201F10C0105D1E4
:10193C000E4B1870FFF7DCFF002010BDA26051F8B1
:10194C000C3C23F01F03134343F01003E36051F8E6
:10195C00043C43F0010323610132E5E74FF0FF3013
:10196C00EBE700BFA440000090ED00E075070020FD
:10197C0010B5034C01232278FFF77AFF207010BDBD
:10198C007507002008B5084A00231278FFF770FF8E
:10199C0010F1160F03D0054B0022072800DD08BDFF
:1019AC0098601A610130F8E77507002090ED00E0AF
:1019BC00014B1860704700BF040000204FF020035B
:1019CC00EFF3118283F31188BFF36F8F0649012364
:1019DC00C1F840354FF08041C1F8783582F3118859
:1019EC00BFF36F8F0020704700E001404FF0804341
:1019FC00C0B2C3F81C05BFF34F8F0549054BCA682D
:101A0C0002F4E0621343CB60BFF34F8F00BFFDE7DE
:101A1C0000ED00E00400FA0520B1034B800143F017
:101A2C0001031847704700BF6040000008B5094B20
:101A3C001A786AB90121197006200521FFF7B4FC48
:101A4C000620FFF793FC044B4FF00042C3F804232D
:101A5C00002008BD760700200060004073B50D46DD
:101A6C004168C668097A05F01F04B2F5A03F44EA44
:101A7C0041140CD104F01F014FF0A04001F5E071AE
:101A8C0050F82110C80707D56FF0220093E0B2F58B
:101A9C00005FF16800F09180F0680121A9400143DA
:101AAC007069F1600121A940B2F5A03FB2690CBF89
:101ABC0008438843B3F5C02F0CBF0A438A43B26175
:101ACC0032697061B3F5802F0CBF114322EA01011A
:101ADC00464A3161D2F804330020DBB200F5A27122
:101AEC0052F82110C1F304218C426BD123FA00F17E
:101AFC00C90767D5830003F1804303F5C043D3F8CE
:101B0C00101521F00101C3F8101501238340C2F810
:101B1C000833C0B200F000FD2046002101F0F0FFB8
:101B2C00F068E84010F0010045D07069E84010F012
:101B3C0001024ED0B369EB40DB075FBF316921FA7C
:101B4C0005F505F00105C5F102050DF1070054BFBF
:101B5C00EDB2032500F002FD254B984236D19DF8DD
:101B6C0007108B0003F1804303F5C0432402D3F824
:101B7C00102522F4473222F44072C3F81025D3F812
:101B8C00102504F4F85414438A0002F1804202F543
:101B9C00C24244EA05450020C3F810551060126893
:101BAC00D3F8102542F00102C3F810250F4A012387
:101BBC008B40C2F8043302B070BD0120A84021EA6A
:101BCC0000016DE70130082888D1A5E76FF01200FD
:101BDC00F1E73169E94001F00101C1F1030120464F
:101BEC00C9B201F08DFF1046E5E700BF0060004070
:101BFC000000AD0B2A4B70B546682A48134083424F
:101C0C003ED00DD8062B15D005D89BB1022B39D060
:101C1C006FF0150033E0B3F5801FF9D1012309E013
:101C2C002148834230D0B3F5A00F2FD0B3F5800FED
:101C3C00EED10223D00654BFC2F34015032582F423
:101C4C00807412F4007FC2F34020C4F3002407D048
:101C5C0012F4006F76681BD001228A40C6F8082562
:101C6C0040EA440201F01F0142EA032301F5E0714E
:101C7C004FF0A04243EA850342F82130002070BDAA
:101C8C000723D7E70423D5E70523D3E70323D1E7BD
:101C9C00520542BF01228A40C6F80C25E0E700BF7E
:101CAC000600F00006001000020040002DE9F04193
:101CBC003F4D2E68002E4ED03E4BD3E90510DA680E
:101CCC001B69014322EA01024FF0A0410127D1F820
:101CDC0010455C4022EA04044FF0000872BB2A60F5
:101CEC002B683548002301251F46D0F8042305FA3C
:101CFC0003F1114211D09A0002F1804202F5C24266
:101D0C00116851B103F5A27150F821101760C1F39D
:101D1C00042105FA01F112680C430133082BE4D1BC
:101D2C00DCB94EB1234CD4E90510E268014322EA38
:101D3C0001020125002642BBBDE8F0813A4206D0E3
:101D4C00002108F01F0001F0DBFE22EA070208F177
:101D5C0001087F00C2E73446C3E7164B59680029D7
:101D6C00DFD00D68154F002D38BF00258A68224042
:101D7C0002D04B6838469847002DD2D02B68002BE8
:101D8C0038BF002329461D46F0E715420CD02169C7
:101D9C00F14001F00101C1F10301C9B206F01F00CD
:101DAC0001F0AEFE22EA050201366D00C3E700BF6A
:101DBC007C610040A8020020006000405800002018
:101DCC0070B54B79012B23D18B79032B20D1CA7998
:101DDC0022B1012A1CD143681B79CBB10C7914B107
:101DEC00022C15D10E240B684568B3F5164F2D68DF
:101DFC0062D02BD8B3F5165F61D014D8B3F5966FBB
:101E0C005FD008D8B3F5967F5ED0B3F5167F5ED061
:101E1C006FF022004FE0B3F5166F5BD0B3F5965F11
:101E2C00F6D1374B3CE0B3F5E14F56D007D8B3F5BC
:101E3C00615F54D0B3F5964FEAD1324B30E047F6A0
:101E4C001226B342E4D14FF4000329E0B3F5613F0D
:101E5C0047D013D8B3F5963F46D009D84DF6C026D7
:101E6C00B34243D0B3F5614FD2D14FF46B0317E0BB
:101E7C00B3F5E13FCCD14FF0EB7311E0B3F5612F2B
:101E8C0037D008D8204EB34236D0B3F5E12FBFD1AE
:101E9C004FF0E86304E01D4EB342B9D14FF08053CC
:101EAC00C5F82435C36803C922430433C5F86C252F
:101EBC0083E80300002070BD4FF41D03F0E7144BC2
:101ECC00EEE74FF49E23EBE74FF4A033E8E74FF433
:101EDC001C33E5E74FF41D23E2E70E4BE0E70E4B16
:101EEC00DEE74FF06C73DBE70C4BD9E74FF465037F
:101EFC00D6E74FF07063D3E74FF08063D0E700BFB5
:101F0C0000B0130000A04E0090D0030040420F0020
:101F1C000050270000C0750000F03A0000903A0114
:101F2C002DE9F041C7680646884601F074FFB8B940
:101F3C00284B1B7883F001037268156893B14FF03E
:101F4C002003EFF3118483F31188BFF36F8F3046B6
:101F5C0001F065FE38BB84F31188BFF36F8FEEE799
:101F6C000123E9E76424304601F059FE70B90120E1
:101F7C0001F07CFE013CF6D10021212000F0C8FFCD
:101F8C00F0E784F31188BFF36F8FF5E74FF0200370
:101F9C00EFF3118483F31188BFF36F8F304601F098
:101FAC003EFE0028EDD007F8108F01230022C5F863
:101FBC004475C5F84835C5F82021D5F82011C5F869
:101FCC005821D5F85821AB6084F31188BFF36F8F7B
:101FDC00BDE8F08177070020F8B500220546012105
:101FEC000220FFF7E1F90220FFF7C0F96B68EE68F9
:101FFC001C684FF0A04300224021C4F800250620A5
:10200C003560C3F808150321C3F81817C3F8202747
:10201C00C4F80C050820C4F81405C3F81C272022AA
:10202C00C3F80825C3F81417E9680523C4F8083564
:10203C000723C4F8103504312846FFF7C1FE0746C4
:10204C0000283CD16B689B79CBB106F1120000F0F3
:10205C00BDFA1D4B984234D1B07CC30003F18043D0
:10206C0003F5F83304F10C0204F59071C3F8101564
:10207C00C3F81425154A01238340C2F804350823FC
:10208C00C4F800350023C4F81031D4F8103106F12F
:10209C001103C4F834350123C4F8383523606B6858
:1020AC009B791BB94FF48073C4F8043300231036AA
:1020BC00C4F84465C4F848350123A360E36038468E
:1020CC00F8BD6FF00407FAE70000AD0B00F001401B
:1020DC00044B1868421C04BF034B1878831F5842EA
:1020EC005841704730010010E00F00F0074B1B788F
:1020FC00062B09D1064B1B68C3F30313033B032BBD
:10210C0002D8044AD05C704700207047E00F00F002
:10211C00E80F00F085410000024AD2F80034002B91
:10212C00FBD0704700E0014010B5FFF7D1FF28B19C
:10213C00774B784A1B68C3F304231360FFF7D6FF71
:10214C0010B1754B754A1A60FFF7C2FF28B1744B7A
:10215C00744A1B68C3F342331360FFF7C7FF20B107
:10216C00714AD36823F08073D360FFF7B1FF40B19D
:10217C004FF080430022C3F80C21C3F81021C3F8A0
:10218C003825FFF7B3FF10B1684B03221A60FFF735
:10219C00ADFF40B1664B05221A6001229A670022FE
:1021AC009A603F225A60634B1A68511C0BBF624BFA
:1021BC00624B1A781B6802BF08331B68C3F3031306
:1021CC00062A4DD1033B032B03D85D4AD35C002B6D
:1021DC0046D04FF080525B4BD2F80414C3F8201554
:1021EC00D2F80814C3F82415D2F80C14C3F8281527
:1021FC00D2F81014C3F82C15D2F81414C3F83015F7
:10220C00D2F81814C3F83415D2F81C14C3F84015BE
:10221C00D2F82014C3F84415D2F82414C3F8481586
:10222C00D2F82814C3F84C15D2F82C14C3F8501556
:10223C00D2F83014C3F85415D2F83414C3F860151E
:10224C00D2F83814C3F86415D2F83C14C3F86815E6
:10225C00D2F84014C3F86C15D2F84424C3F8702596
:10226C00FFF736FF28B1384B384A1B6803F04F0391
:10227C001360FFF72DFF48B14FF08043D3F80024D3
:10228C00D20744BF6FF00102C3F80024294B1B682E
:10229C00062B0CD1294B1B68033B032B02D82C4A71
:1022AC00D35C23B12B4A136843F4806313604FF063
:1022BC001023D3F80022002A03DBD3F80432002BBE
:1022CC0022DA25490123C1F80435FFF725FF4FF029
:1022DC0010201524C0F80042FFF71EFFC0F804427E
:1022EC00FFF71AFF0023C1F80435FFF715FFBFF302
:1022FC004F8F1A491A4BCA6802F4E0621343CB6041
:10230C00BFF34F8F00BFFDE7164B174A1A6010BD85
:10231C00240300104035014074C007400DF0ADBAE5
:10232C00440200103C050040F0ED00E0A005004028
:10233C001056004030010010E00F00F03401001086
:10234C007D41000000C0004058020010E40E004027
:10235C00814100003C17004000E0014000ED00E02E
:10236C000400FA051C0000200090D003044B1A79DD
:10237C0022B9012218609A800248704702487047BF
:10238C00C40200200000AD0B0C00AD0B30B510B139
:10239C00012833D030BD4FF08043D3F81824D3F844
:1023AC00181411F4803F194624D002F00302012ABC
:1023BC0020D1C3F81825164B00221A601B684FF069
:1023CC0080430222C3F80423124AD06840F0807381
:1023DC00D360114B1C6844F0010119605D685968A9
:1023EC00491BB1F50A5FFAD31C600C4BD06001227B
:1023FC001A60CFE70023C1F81835DCE7084B002240
:10240C001A601B684FF08043C3F804031860C1E7DF
:10241C0004010040F0ED00E0001000E00800004076
:10242C000001004038B510B1012818D038BD4FF06C
:10243C0080430222C3F80823184A10601268184A15
:10244C000121116042F210751C46D4F81834DB03DC
:10245C00ECD5012001F00AFC013DF6D1E6E7114B69
:10246C004FF080440022C4F808031A601B680E4B1E
:10247C0042F210751860D4F80C34D4F80C24D20342
:10248C0003F0010305D523B1012001F0EFFB013D61
:10249C00F1D1064B00225A71C8E700BF040100407D
:1024AC000C0000400001004004000040C402002069
:1024BC00164B1A6810B56AB100221A601B684FF0EF
:1024CC0080430122C3F80823114B587910B95A7173
:1024DC001B6898470F4B1A6872B100221A601B6870
:1024EC004FF08043D3F81824D3F81814920704D172
:1024FC000122C3F818259A6010BD0222C3F80823E4
:10250C00034BBDE810401B68012018470001004038
:10251C00C402002004010040012303FA00F010F073
:10252C00FF0F12D04FF02003EFF3118183F31188CA
:10253C00BFF36F8F064AD36C23EA0000D06481F39B
:10254C001188BFF36F8F034870470348704700BF73
:10255C00CC0200200000AD0B0400AD0B2DE9F041C6
:10256C000546DFF860E01648DFF85C800024FF22A7
:10257C000126E3B24FF02001EFF3118C81F31188A7
:10258C00BFF36F8F22FA03F1C9070AD5DEF84C109E
:10259C0006FA03F7394201BF3943CEF84C104046D6
:1025AC002B708CF31188BFF36F8F404505D006FA62
:1025BC0003F39A4304F10104DBD1BDE8F08100BFC1
:1025CC000200AD0BCC0200200000AD0B2DE9F04158
:1025DC00144A154E154F0546154800244FF0010EB0
:1025EC005FFA84FC4FF02003EFF3118883F311881A
:1025FC00BFF36F8F0EFA0CF3134207D031680B4206
:10260C0001BF1943316085F800C0384688F3118842
:10261C00BFF36F8FB84203D09A4304F10104DFD1AA
:10262C00BDE8F081FFFF0F001C0300200000AD0B84
:10263C000200AD0BF8B5104B104F53F82050013081
:10264C0053F82060AE4200D8F8BDD5E900342046DE
:10265C00984770B16CB1E41B24116109084A04F06D
:10266C001F0452F82100012303FA04F4044342F836
:10267C0021400835E6E700BF10410000280000208B
:10268C0068000020084BC01A0011084B420900F0EA
:10269C001F0053F82220012303FA00F010420CBF54
:1026AC0018460020704700BF28000020680000205A
:1026BC00114970B5114C05460E468C4204D10F4C95
:1026CC00B4420AD1002414E02046FFF7DBFF10B11E
:1026DC002368AB420DD01034EFE72046FFF7D2FF52
:1026EC0008B91034ECE72168284601F0AAF9002853
:1026FC00F7D1204670BD00BF6800002028000020E4
:10270C00F8B5164E054600274FF02002EFF3118363
:10271C0082F31188BFF36F8F286988B12F6183F31F
:10272C001188BFF36F8F00F089FA4FF02003EFF39D
:10273C00118083F31188BFF36F8F01F0C0FAE3E7C8
:10274C0001F089FB012102280446D8BF084601F09C
:10275C0092FB7462FEF7F2FED6E700BF2003002066
:10276C000248034A0021121A01F0A2B9700000209D
:10277C007807002008B50A4B012202201A70FFF7D7
:10278C0059FF00F0DBFC0320FFF754FF00F064FC62
:10279C00FDF718FE034A137B23F00103137308BDE6
:1027AC0077070020F00000202DE98048DFF8F49036
:1027BC00A7B089F30888334D334E6B69DFF8E8A076
:1027CC00324F43F4007300246B61E02385F8223010
:1027DC00EC772C766C76AC766B6A43F4E0236B6208
:1027EC00FEF7F4FFFEF7A4FE4FF0FF33AB62EB6293
:1027FC00274D40F20113ADF8243006ABAB602046F8
:10280C00CDE92044FFF716FF0120FFF713FF4FF02F
:10281C00010B00F023FB1F4BAE621F4905934FF4D5
:10282C0080625346CDE9034BCDE901440094304618
:10283C0000F0E0FB737B804623F004033046737397
:10284C0001F069FA0F23CDE902431449144B4FF4FC
:10285C00A072CDE904B4CDE90054384600F0CAFBAF
:10286C007B7BEF6023F004037B7305F11C03C5E94C
:10287C0007332C76C5F80490524641463046FEF795
:10288C00E1FD00BF00ED00E0F00000207000002032
:10289C00200300208941000080070020A00B0020AD
:1028AC000D270000201500208127000010B5084CD2
:1028BC0023685BB1FEF7F6FC03462068054A034427
:1028CC00BDE810405361002101F0D5BA10BD00BF26
:1028DC005C03002020030020F8B505460C464FF0A1
:1028EC002003EFF3118683F31188BFF36F8F0D4B29
:1028FC0000224FF4004740F2E73000215A61E7FB19
:10290C0005014FF47A720023FDF7E2FB064B1860C9
:10291C00064B1C60FFF7CAFF86F31188BFF36F8F5D
:10292C00F8BD00BF200300205C03002058030020EA
:10293C0049B9EFF3058030B9054B9A6A9B689A4206
:10294C0001D0FEF7F9BC81F31188BFF36F8F70478C
:10295C00200300204FF02003EFF3118183F3118843
:10296C00BFF36F8F044B9A68D37B013BD37381F316
:10297C001188BFF36F8F704720030020094B03F1C0
:10298C002C02824205D19B688B4202D14B7BDB0629
:10299C0006D1D1E9003213605A600023C1E900333B
:1029AC00704700BF2003002038B5124C2369A26881
:1029BC0001460BB1E5680CE004F12C0001F0A1F923
:1029CC00537B0546980644BF43F008035373002D10
:1029DC00F0D049B9537BDB0606D1AB6923B9D38957
:1029EC007F2B01D9A26238BD954201D0FFF75EFF63
:1029FC00A562F8E72003002010B54FF02003EFF399
:102A0C00118483F31188BFF36F8F084B9A68D37BC3
:102A1C000133D3730020FFF7C7FF84F31188BFF392
:102A2C006F8FBDE8104001F056B900BF20030020A5
:102A3C0070B490F90D20437B002A2CDBDB062AD1E5
:102A4C00836943BB154A114651F82C4F8C4218BF71
:102A5C002346002B146B38BF0023B3B190F90E60E2
:102A6C0093F90E50AE4203DBA3420ED01B68F4E781
:102A7C005A68C0E9003210605860437B63F07F03F2
:102A8C00437370BC0020FFF78FBFC0E90014136BB9
:102A9C0018601063F1E770BC704700BF2003002082
:102AAC0010B54FF02002EFF3118482F31188BFF3BD
:102ABC006F8F427B510704D484F31188BFF36F8F5F
:102ACC0010BD22F004024273FFF7B2FF2146024808
:102ADC00BDE81040FFF72CBF7807002070B590F9C7
:102AEC000D30002B014602DA1748FFF747FF174A53
:102AFC001046146B50F82C3F834208BF0023002B68
:102B0C0038BF0023D3B191F90E6093F90E50AE4249
:102B1C0003DBA34212D01B68F4E75868C1E900300C
:102B2C00016059604B7B906863F07F034B73431AD1
:102B3C005842BDE870405841FFF736BFC1E9000468
:102B4C00136B19601163EDE74C0300202003002088
:102B5C0070B501464FF02003EFF3118483F3118815
:102B6C00BFF36F8F164B174A98681568A8421D461D
:102B7C0006D1FFF79BFE84F31188BFF36F8F70BDF6
:102B8C0000261660104A1268BAB1C2897F2A14D87E
:102B9C00427BD20611D10D4A90F90E601268964212
:102BAC000BDB0B4A904208D05A698A4202DCFFF7D1
:102BBC0095FFDEE7521A5A61DDE700236B61DAE715
:102BCC0020030020540300205C0300205803002045
:102BDC007000002070B50446183001F026F94FF053
:102BEC002003EFF3118683F31188BFF36F8F94F9F1
:102BFC000D30002B07DA0F482146FFF7BFFE637B31
:102C0C0003F07F0363730C4D637BA86843F01003E0
:102C1C006373031B58425841FFF7C6FE86F31188B5
:102C2C00BFF36F8FAB68A34203D1BDE8704001F0D6
:102C3C0052B870BD4C030020200300202DE9F04158
:102C4C0004464FF02003EFF3118283F31188BFF396
:102C5C006F8F437B13F0280F05D082F31188BFF3DD
:102C6C006F8FBDE8F08143F02003437382F311882A
:102C7C00BFF36F8F183001F0D8F84FF02003EFF34B
:102C8C00118683F31188BFF36F8F637BD80616D13F
:102C9C00A269A2B9190607D526482146FFF76EFE90
:102CAC00637B03F07F036373234B9868021B5042D2
:102CBC005041FFF779FE04F1300800271DE09B0717
:102CCC00F9D5A0682146FFF759FE637B23F0020378
:102CDC0063730023A360EEE705F1180001F0A5F87B
:102CEC00A8682946FFF74AFE6B7BAF6023F002030E
:102CFC006B73EF672846FFF79BFE256B454501D0AC
:102D0C00002DE9D10C4B9A680C4B9A4202D1012050
:102D1C00FFF74AFE637B43F008036373236E86F36D
:102D2C001188BFF36F8F002B9BD02046BDE8F0417C
:102D3C00184700BF4C030020200300207000002027
:102D4C0008B590F90D30002B014606DA0748FFF75D
:102D5C0015FE4B7B03F07F034B73054B9868431AAE
:102D6C0058425841BDE80840FFF71EBE4C030020F6
:102D7C00200300202DE9F041064614461D464FF075
:102D8C002003EFF3118783F31188BFF36F8F00F0EB
:102D9C00F2FF87F31188BFF36F8F6B1C08BFB4F180
:102DAC00FF3F08D022462B4606F118000349BDE828
:102DBC00F04100F039BABDE8F08100BF433D00009E
:102DCC0010B5074B9868074B0C4618601146DDE9A7
:102DDC000223FFF7CFFF2046BDE81040FEF7ACBA48
:102DEC0020030020540300202DE9F04105460F4636
:102DFC0001F05BF804464FF02003EFF3118883F3E6
:102E0C001188BFF36F8F124E124BB0681860FFF72A
:102E1C0097FFB06810492A463B46183000F004FA78
:102E2C00B268537B43F0100353734046FEF784FAA9
:102E3C0001F03BF82C44241A4FF0000565F1000515
:102E4C00002C75F10003B8BF00242046BDE8F081CA
:102E5C002003002054030020433D0000044B0021BC
:102E6C0003F12C02C3E90B220846FFF735BD00BF66
:102E7C0020030020F8B5244C244BA2689A4230D091
:102E8C004FF02003EFF3118583F31188BFF36F8F9D
:102E9C00A16804F12C00FFF771FDE36AA268216BB5
:102EAC00834208BF0023002B38BF00232BB392F9B9
:102EBC000E7093F90E60B74203DB8B421DD01B687A
:102ECC00F4E75968C2E900310A605A60537B63F039
:102EDC007F0353730120FFF767FD85F31188BFF360
:102EEC006F8F4FF02003EFF3118083F31188BFF342
:102EFC006F8FBDE8F840FEF71FBAC2E90001236BE3
:102F0C001A602263E2E700BF20030020700000205B
:102F1C00B1F1FF3F08BFB0F1FF3F08B502460B46C9
:102F2C0006D10B4B9868FFF755FE4FF0FF3008BDEC
:102F3C0013430AD1FFF79EFF00204FF47A7380FBF6
:102F4C000323D00B40EA4340F1E7FFF74DFFF4E7D2
:102F5C0020030020014B9868704700BF200300201D
:102F6C0038B504464FF02003EFF3118583F3118835
:102F7C00BFF36F8F00F02AFF48B10022C26700F048
:102F8C00CAFE29460548BDE83840FFF7D1BCD4E954
:102F9C0002329A4218BF0133A360F2E7780700208F
:102FAC0037B514461D464FF02003EFF3118183F320
:102FBC001188BFF36F8F836843B1013B836081F34A
:102FCC001188BFF36F8F002003B030BD54EA0503A6
:102FDC0006D181F31188BFF36F8F6FF00F00F3E709
:102FEC000246CDE900450248FFF7EAFEECE700BFD8
:102FFC00780700202DE9FF4100F13005C0E90C55A0
:10300C000E9D0573042545730F460D9D8573D61DC6
:10301C0000250C9AC57326F007062037C0E9065523
:10302C00C0E91A76056706F1200802920B9A019204
:10303C0088440A9A009242460446FEF7CDF9054BA5
:10304C009B68C4E9175503B15B6F6367404604B0D6
:10305C00BDE8F081200300202DE9F0472A4E2B4DCE
:10306C0086B0B046B54205F1300410D3FFF772FCC0
:10307C00264CDFF89CA04FF4004940F2E7360027BD
:10308C00444521D306B0BDE8F047FFF7B5BC54F872
:10309C00043C059354F8103C049354F8143C0393EB
:1030AC0054F8183C029354F81C3C019354F8203CFF
:1030BC00009354E90A2354E90C01FFF79BFF54F8E1
:1030CC00303CDD652546CDE7636A5A1C0DD023EAFA
:1030DC00E37330463946C9FB0301B94208BFB0421D
:1030EC00256804D12846FFF7DBFC3034C8E74FF4E1
:1030FC007A720023FCF7ECFF02460B4605F1180030
:10310C00514600F091F8F0E76C0000206C000020B4
:10311C00433D000008B54FF02003EFF3118483F317
:10312C001188BFF36F8F044B98681861FFF752FD3D
:10313C002046FEF701F900BF20030020024A034994
:10314C00034800F0B9B900BF354100008E410000C2
:10315C009B41000008B50648064A0749121A00F0C0
:10316C007CFCBDE80840054A0549064800F075BCE2
:10317C00000000206C000020C44100000000000092
:10318C00C441000000000020034B1B680BB9FEF784
:10319C0089B80020704700BF6003002030B5036879
:1031AC0068B10A4A5268904209D043B1D3E904216C
:1031BC00D0E90445121945EB0101C3E90421426829
:1031CC0013605A600023C0E9003330BD200000209A
:1031DC0038B5134B1C689C4208BF0024FFF7D4FF82
:1031EC000546BCB1D4E90401401B61EBE571012833
:1031FC0071F1000311DB6FF000420023824273EB8C
:10320C00010400DA1046074B5B6913B19842A8BF62
:10321C00184638BD6FF00040F5E70020F3E700BF1B
:10322C0020000020200300202DE9F74F01911946C2
:10323C004B1C08BFB2F1FF3F824671D0541C6FF09B
:10324C00010341F100054FF0FF3BB3EB04086BEBBE
:10325C000509B8F1000F79F100030FDBFFF794FFBC
:10326C00364AD2E9001C6FF001035B1A6BEB0C02BF
:10327C001E1B62EB0507341A67EBE075019BCAF85D
:10328C0008304FF02003EFF3118683F31188BFF35E
:10329C006F8FFFF779FF012C75F10003284BB8BF36
:1032AC0001241A68B8BF0025241845EBE0759A4232
:1032BC00CAE9044501D05F6852B95A68CAF80420BB
:1032CC005A68CAF80030C2F800A0C3F804A014E091
:1032DC00D2E90489DAE90445444575EB090122DA9F
:1032EC00B8EB040069EB0501C2E904015168CAE9B5
:1032FC000021C1F800A0C2F804A01A689A420BD0B1
:10330C00924509D1FFF764FF18B10E4B5B698342FC
:10331C0002D00021FDF794FF86F31188BFF36F8F65
:10332C0003B0BDE8F08FB4EB080065EB0901BA42BD
:10333C00CAE90401C1D01268BEE700BF70010020C9
:10334C0020000020200300202DE9F74F0646FFF750
:10335C00FFFB4FF02003EFF3118483F31188BFF3CD
:10336C006F8F2C4DDFF8B0A0DFF8B0B02E60514657
:10337C00D5F800C0DBF800006246D3175845DAE9EF
:10338C000089CDE900230DD060B1D0E90467B445C4
:10339C00BB411EDA009BB6EB030C019B67EB0306EB
:1033AC00C0E904C6009B13EB0802019B4FF000061A
:1033BC0043EB0903C1E900232E60FFF709FF3146F7
:1033CC00FDF73EFF84F31188BFF36F8F03B0BDE8A8
:1033DC00F08F18EB06084FF000024FF0000349EB9A
:1033EC00E679C0E90423ACEB0606CAE900892E6035
:1033FC00FFF7D4FE84F31188BFF36F8F836898476F
:10340C004FF02003EFF3118483F31188BFF36F8F18
:10341C000149ADE76003002070010020200000206E
:10342C0010B54FF02003EFF3118483F31188BFF331
:10343C006F8FFDF737FF064BD3E90023121843F1CA
:10344C00000384F31188BFF36F8F1046194610BD2B
:10345C007001002038B5064C064DAC4201D300205B
:10346C0038BDD4E90112204600F023FD1434F4E7F2
:10347C006C0000206C000020034658B1426802F03A
:10348C000302012A03D0032A04D1026812B10020DE
:10349C00986070476FF0150070474268816002F0C9
:1034AC000302032A4FF0000203460CBF00681046CB
:1034BC005A607047002070470FB407B504A951F843
:1034CC00040B0191FCF792FF03B05DF804EB04B020
:1034DC007047038B13F0070305D10368002B0CBF57
:1034EC00002003207047022B05D1438B002B14BF07
:1034FC00002004207047012B05D10368002B0CBF62
:10350C00002005207047002070472DE9F0410D4642
:10351C0007461946281D90461E46FFF7BEFF044677
:10352C0038B13346424629463846A446BDE8F041F8
:10353C006047BDE8F08110B44FF02004EFF3118226
:10354C0084F31188BFF36F8F416110BC0121FCF72C
:10355C005BBF10B50C4640B139B1081DFFF78CFFAD
:10356C0028B9A36833F0030301D06FF0150010BD28
:10357C0038B50C46054658B151B10B6843B14B6890
:10358C0033B11C22002100F093FA2C61002038BDCD
:10359C006FF01500FBE770B504460E46FFF7D9FF38
:1035AC00051E31DB4FF02003EFF3118183F31188FB
:1035BC00BFF36F8F638B208B4FF6FF75AB4200F020
:1035CC0007022ED0022A0ED1013363831546012344
:1035DC0081F31188BFF36F8FB3B1002331462046BE
:1035EC00FFF793FF10E0830701D0062A0ED10023CA
:1035FC003360636893B9C4E90066154662B90A463C
:10360C0020460221FCF700FF284670BD052A0CBF9E
:10361C006FF022056FF004050023D9E71E60666089
:10362C00EBE76FF00A05F7E7044608B508461146C4
:10363C001A46A047FFF78EFCFEF7DCF8836800EB18
:10364C00C101B3F5004F2CBF51F8220031F8120024
:10365C00704700EBC1018068B0F5004F2CBF41F8FA
:10366C00223021F81230704708B50122FFF7E6FF2F
:10367C00400808BD8368B3F5004F00EBC10108D3C7
:10368C004B681AB143F001034B60704723F0010300
:10369C00FAE74B881AB143F001034B80704723F0D3
:1036AC000103FAE753000122FFF7D3BF8068013111
:1036BC00B0F5004F2CBF02200120081AB0FA80F0A0
:1036CC00C0F11F0070472DE9F04104460D46FFF78D
:1036DC00CBFFA368B3F5004F014601D3012835D0C9
:1036EC002046FFF7E3FF04EB800216699EB9012325
:1036FC0003FA00F0E3680343E360294615612B46A7
:10370C0002222046FFF7A5FF032229462046BDE8EA
:10371C00F041FFF79EBF022231462046FFF78EFF95
:10372C0002220346074629462046FFF792FF3346FE
:10373C00032229462046FFF78CFF032239462B46ED
:10374C002046FFF786FF02223146DFE7BDE8F08115
:10375C00B2F5802FF8B52CBF08250425551BCC1DC0
:10376C000D4424F0070425F00705002200232D1B2F
:10377C000460ED08C4E9002300232946A560E3603A
:10378C002046FFF793FF86001B36411CF60804F118
:10379C00100218468B4229DB324620460021FFF7E7
:1037AC0081FFAF1B204601220021FFF763FF3A4641
:1037BC003146FFF777FF3346314620460022FFF7AC
:1037CC0048FF294620460022FFF76CFF3B4629465E
:1037DC0020460022FFF73DFF294620460122FFF735
:1037EC0049FF3146BDE8F840FFF76DBF42F8040BC6
:1037FC000133CFE72DE9F74F9946D37814466F2B59
:10380C00A3F1410206460F4601922DD028D8582B21
:10381C0014BF0A251025DDF83080AA464FF0000BA6
:10382C0052465B4630463946FCF752FC092AD3B265
:10383C001FD830335F45DBB208BF564508F8013D51
:10384C0001D3C84512D823789B0605D5082D16D16F
:10385C00A37843F00803A370404603B0BDE8F08F93
:10386C0003F0F703702BD3E70825D4E706460F4681
:10387C00D6E7019A192A94BF37335733DAE7102D5C
:10388C00EAD1A37843F01003E5E72DE9F0410746B0
:10389C00884615461E461446B442A4EB050002D3D6
:1038AC003EB923782BB114F8010B4146B8470028D8
:1038BC00F2DABDE8F0817047C268CBB20C2103FB91
:1038CC000121086C00F0070070474FF02003EFF364
:1038DC00118283F31188BFF36F8F036813F0C00359
:1038EC0001D08B4207D101230360002082F31188A1
:1038FC00BFF36F8F70474FF0FF30F7E710B54FF005
:10390C002003EFF3118283F31188BFF36F8F0368E9
:10391C0003F00704012C06D10160002082F311880A
:10392C00BFF36F8F10BD03F0C0038B4214BF4FF079
:10393C00FF306FF04400F1E74FF02003EFF31182FA
:10394C0083F31188BFF36F8F036803F0C00343F058
:10395C000203036082F31188BFF36F8F7047C06856
:10396C0010B4CBB21C2403FB0400002110BC104784
:10397C000020FEF757BD1046FFF7F2BA38B5CCB2AF
:10398C000C2305466343C068403380211844FFF77D
:10399C009CFF002805DB696801EBC4046368984749
:1039AC00002038BD2DE9F843CDB20C27C4686F4315
:1039BC00064607F140008021204490469946FFF7C7
:1039CC009DFF002807DB3C44C4E90E89736853F85B
:1039DC00353098470020BDE8F88370477047FDF7F5
:1039EC007BBC08B5FFF7FBFF002008BD00210120C0
:1039FC0000F000B800F046B90146006800F042B98A
:103A0C0008B5FDF7B3FDBDE80840FDF7F5BD01397C
:103A1C00034611F8012F0AB91A70704703F8012BED
:103A2C00F7E7034600201A5C02B970470130FAE749
:103A3C00034600201A5C0AB1884200D1704701305D
:103A4C00F8E7431E013913F8012F11F8010F8242D8
:103A5C0001D1002AF7D1101A7047F0B581EA0004A1
:103A6C00A50703460BD0013B0A4491421BD1F0BD84
:103A7C00002AFCD011F8014B03F8014B013A9C07CA
:103A8C00F6D122F003041D1F96080F19B94205D177
:103A9C006FF0030505FB06222344E4E751F804CB41
:103AAC0045F804CFF2E711F8014B03F8014FDCE7BE
:103ABC0070B5C9B203469C0711D141EA012422F02A
:103ACC00030644EA04451E449408B3420DD16FF03A
:103ADC00030505FB04221A44934209D170BD002A48
:103AEC00FCD003F8011B013AE5E743F8045BECE773
:103AFC0003F8011BF0E74FF0FF307047FEF714BBE3
:103B0C0000F01F00800000F1A040D0F8003723F433
:103B1C00403343EA0143C0F80037704743685B68A1
:103B2C00D3F810350B600020704743685B68D3F8FE
:103B3C00040542400A404240C3F804250020704767
:103B4C0043685B680020C3F80815704743685B68DE
:103B5C000020C3F80C15704743685A68D2F8043536
:103B6C004B40C2F8043500207047C368586830B524
:103B7C0058B10024814213D108685CB99C68586024
:103B8C00A14200D198600020086072B9002030BDBD
:103B9C002846EFE720609868814208BF9C60F2E7F6
:103BAC0005680446002DF3D13AB15A680A6098684A
:103BBC0059600028EAD19960E9E76FF01500E6E753
:103BCC0043681B68D3F80423D20518D5D3F82021F9
:103BDC00AAB14FF02001EFF3118281F31188BFF3EA
:103BEC006F8FD3F8201131B10021C3F82011D3F815
:103BFC0020110121D96082F31188BFF36F8F7047B8
:103C0C00C2680B46D2E9010183E80300002070472B
:103C1C0043681B68D3F88004C3F88004704742687B
:103C2C001368D3F8580138B9927932B9D3F8200116
:103C3C00003818BF01207047012070474368C268E4
:103C4C001B68D3F8100148B1527C0A700020C3F8ED
:103C5C001001D3F8102101221A6070474FF0FF3089
:103C6C00704708B50020FDF7C1FE004700F0D9B839
:103C7C0008B50020FDF78AFB18B9BDE80840FDF730
:103C8C0075BB08BDF8B505460E464FF02003EFF3A3
:103C9C00118783F31188BFF36F8FFFF75BF9314600
:103CAC0004462846FFF7DDFF87F31188BFF36F8FBB
:103CBC002046BDE8F840FDF79DBDFFF78FBE0346DB
:103CCC0020B9EFF305820AB9FDF736BB83F31188EF
:103CDC00BFF36F8F70474FF02003EFF3118083F326
:103CEC001188BFF36F8FFFF7EABF014608B58068F4
:103CFC00FEF744FE4B7B23F002034B7300238B60D7
:103D0C0008BD03460068834203D0002838BF00205A
:103D1C0070470020704710B54FF02003EFF311846B
:103D2C0083F31188BFF36F8FFEF782FE84F3118843
:103D3C00BFF36F8F10BD70B504464FF02003EFF347
:103D4C00118683F31188BFF36F8F50F8103CA0F1EC
:103D5C00180513B12846FFF7C8FF14F80B3C23F0E5
:103D6C00140304F80B3C2846FEF762FE86F3118818
:103D7C00BFF36F8F70BD38B504460D46FEF7E0FFFC
:103D8C00637B43F002036373C5B12B68A5609D424E
:103D9C0008BF0023002B38BF002383B194F90E1009
:103DAC0093F90E20914204DB6A689A4207D01B6893
:103DBC00F3E75A68C4E9003214605C6038BD6B6884
:103DCC0063606B6825601C606C60F7E738B54FF07A
:103DDC002003EFF3118283F31188BFF36F8FFFF78A
:103DEC0090FF044682F31188BFF36F8F88B14FF0B8
:103DFC002003EFF3118583F31188BFF36F8FFFF767
:103E0C0074FF85F31188BFF36F8F04F1180000F075
:103E1C000CF8204638BDEFF30580003818BF0120A0
:103E2C00704708B1FDF7F8BD704710B54FF0200290
:103E3C00EFF3118482F31188BFF36F8F03683BB1EA
:103E4C00FFF7ACF9002084F31188BFF36F8F10BD1E
:103E5C006FF01500F7E710B54FF02003EFF3118466
:103E6C0083F31188BFF36F8FFFF7B2F984F31188D6
:103E7C00BFF36F8F10BD70B504460D464FF0200395
:103E8C00EFF3118683F31188BFF36F8FFFF7A0F95F
:103E9C00012805DDA04203DD29462046FDF7D0F9B7
:103EAC0086F31188BFF36F8F70BD08B5FFF7B8FAB2
:103EBC0008BD10B400F10C04C0E9034410BCFFF7BA
:043ECC0047BC704738
:083ED0003CC2FF7F010000006D
:103ED800C919000000000000EF39000000000000D0
:103EE80061340000000000002119000000000000FB
:103EF800550E000028000020E51F000038000020B3
:103F0800610D000000000000F911000048000020C9
:083F1800391A000058000020D6
:103F2000BD240000773C000000000000F9390000CB
:103F300038000020CD3B000000000000F9390000EF
:103F400000000000F939000000000000F93900000D
:103F500000000000B91C000000000000F93900005A
:103F600000000000F939000000000000F9390000ED
:103F700000000000F939000000000000F9390000DD
:103F800000000000F939000000000000F9390000CD
:103F900000000000F939000000000000F9390000BD
:103FA00000000000F939000000000000A911000025
:103FB00000000000F939000000000000F93900009D
:103FC00000000000F939000000000000F93900008D
:103FD00000000000F939000000000000F93900007D
:103FE00000000000F939000000000000F93900006D
:103FF00000000000F939000000000000F93900005D
:1040000000000000F939000000000000F93900004C
:1040100000000000F939000000000000F93900003C
:1040200000000000F939000000000000F93900002C
:1040300000000000F939000000000000F93900001C
:1040400000000000F939000000000000F93900000C
:0840500000000000F939000036
:08405800FFFFFFFFFFFFFFFF68
:104060000338FDD870470000B90F000089390000FF
:10407000B139000000000000C5380000050F000045
:104080008D0F0000690F00007D390000FD0D00005C
:10409000B50D00000000000000000020000000003E
:1040A00000000B0602000000AC4000000000000011
:1040B0006741000024000207000000206F4100005B
:1040C0001E000B11011C0000293B0000373B0000C3
:1040D0004D3B0000593B0000653B0000691A0000A1
:1040E000773B000000000000FFFFFFFF00000050D2
:1040F00000000000493C00002D1F00001D3C000096
:10410000CD1D00000D3C0000002000400600010015
:10411000D83E0000103F0000183F0000203F000084
:10412000203F0000F5FFFFFF48656C6C6F20576F64
:10413000726C64210A00286E696C29005541525442
:104140005F3000434C4F434B007379735F636C6F78
:10415000636B005465726D696E616C00525454005B
:1041600053454747455200464C4153485F30005342
:1041700052414D5F30004750494F5F300000000111
:104180000100000001010000006D61696E007632DF
:104190002E342E39392D6E637331002A2A2A20429B
:1041A0006F6F74696E67205A6570687972204F531B
:1041B000206275696C64202573202573202A2A2AC1
:0441C0000A000000F1
:1041C400C1340000033B00000000000000C20100F5
:1041D4000001030000000000000000000090D00374
:0841E400200000202000002053
:1041EC00434100007C400000684000008C0100202E
:1041FC003C41000008410000F44000000800002091
:10420C004941000000000000000000000000000018
:10421C0076410000E8400000C4400000A8020020E5
:04422C00000000008E
:04000003000015C123
:00000001FF
