:10000000A0070020F11600000937000021170000AA
:100010002117000021170000211700002117000000
:100020000000000000000000000000003515000086
:100030002117000000000000DD140000E936000078
:10004000B1160000B1160000B1160000B116000094
:10005000B1160000B1160000B1160000B116000084
:10006000B1160000B1160000B1160000B116000074
:10007000B1160000B1160000B1160000B116000064
:10008000B1160000B1160000B1160000B116000054
:10009000B1160000B1160000B1160000B116000044
:1000A000B1160000B1160000B1160000B116000034
:1000B000B1160000B1160000B1160000B116000024
:1000C000B1160000B1160000B1160000B116000014
:1000D000B1160000B1160000B1160000B116000004
:1000E000B1160000B1160000B1160000B1160000F4
:1000F000B1160000B1160000B1160000B1160000E4
:10010000B1160000B1160000B1160000B1160000D3
:10011000B1160000B1160000B1160000B1160000C3
:10012000B1160000B1160000B1160000B1160000B3
:10013000B1160000B1160000B1160000B1160000A3
:10014000B1160000B1160000B1160000B116000093
:04015000B1160000E4
:1001540053B94AB9002908BF00281CBF4FF0FF312A
:100164004FF0FF3000F080B9ADF1080C6DE904CE1A
:1001740000F006F8DDF804E0DDE9022304B070477E
:100184002DE9F04F099E0D4604460F46002B47D13A
:100194008A4294465FD9B2FA82F343B1C3F1200193
:1001A4009F4002FA03FC9C4020FA01F10F434FEAFE
:1001B4001C451FFA8CFE220CB7FBF5F105FB1177E9
:1001C40001FB0EF042EA0742904208D91CEB0202FE
:1001D40001F1FF3702D2904200F234813946121AFB
:1001E400A4B2B2FBF5F005FB102200FB0EFE44EABC
:1001F4000244A64508D91CEB040400F1FF3202D2E4
:10020400A64500F21981104640EA0140A4EB0E0411
:1002140000211EB1DC400023C6E90043BDE8F08F95
:100224008B4208D9002E00F0FB800021C6E90005AE
:100234000846BDE8F08FB3FA83F100294BD1AB42F5
:10024400C0F0F180824240F2EE800846002EE5D0F4
:10025400C6E90047E2E702B9FFDEB2FA82F3002BF7
:1002640040F09D808D1A4FEA124E97B20121B5FBE2
:10027400FEF20EFB1250250C45EA004507FB02F086
:10028400A8420FD91CEB050502F1FF382CBF4FF033
:1002940001094FF00009A84203D9B9F1000F00F099
:1002A400CE8042462D1AA4B2B5FBFEF00EFB1055CB
:1002B40000FB07F744EA0544A74208D91CEB0404F1
:1002C40000F1FF3502D2A74200F2B3802846E41BB6
:1002D40040EA02409DE7C1F120078B4005FA01F492
:1002E40022FA07FCFD408A404CEA030C20FA07F38B
:1002F4004FEA1C491C431FFA8CFE00FA01F3200C40
:10030400B5FBF9F809FB185540EA054508FB0EF062
:10031400A8420FD91CEB050508F1FF3A2CBF4FF09A
:10032400010B4FF0000BA84203D9BBF1000F00F002
:100334008C80D0462D1AA4B2B5FBF9F009FB1055F8
:1003440000FB0EFE44EA0545AE4507D91CEB050546
:1003540000F1FF3401D2AE457ED8204640EA084081
:10036400A5EB0E05A0FB029845454C46C64602D3B4
:1003740006D14B4504D20138B9EB020468EB0C0EEC
:10038400002E6FD01A1B65EB0E0522FA01F305FA55
:1003940007F7CD4000211F43C6E900753EE702FA86
:1003A40003FCC3F1200001FA03F24FEA1C4EC140E2
:1003B40024FA00F51FFA8CF79C401543B1FBFEF0BC
:1003C4002A0C0EFB101142EA014200FB07F1914294
:1003D4000ED91CEB020200F1FF382CBF4FF00109CB
:1003E4004FF00009914202D9B9F1000F31D04046D3
:1003F400521AADB2B2FBFEF10EFB112245EA0245E0
:1004040001FB07F2AA4207D91CEB050501F1FF38ED
:1004140001D2AA4223D84146AD1A41EA004126E757
:1004240031463046FAE6841A65EB030301201F4681
:100434000CE7644402384AE764440238E4E6023ACA
:1004440065442FE702396244C9E6A8F1020865440D
:1004540070E702386244CBE7023865447EE702392C
:100464006544D9E73146D9E6704700BF022110B58B
:10047400052002F047FFBDE8104003460222052193
:10048400014802F061BF00BF9C4100000B680133CA
:100494000B60014B1B68184700000020014B1860DB
:1004A400704700BF0000002007B50B46002102463C
:1004B4000191034801A900F0E5F803B05DF804FBDD
:1004C400910400002DE9F84FB0F81890044619F093
:1004D400080893460DD001290CBF49F0100949F0D2
:1004E4002009A0F818908BF31188BFF36F8FBDE833
:1004F400F88F09F00709022907D1204602F031FFDD
:100504000028F0D00128238B4ED16769218B002F5E
:1005140015DA256821F00701C4E9008841F00101DA
:1005240021830026218B01F0070ACA4502D0A36863
:10053400002B5AD10DB9002E71D0002356E001F0E2
:1005440007035A1F012A1ED821F00701062B25682C
:1005540089B2C4E900880AD13DB12A46638B126886
:1005640001339BB2002AFAD1638341F00201204691
:10057400218302F0F6FE06460028D3D0238B43F0F5
:1005840020032383CDE7042B0CD121F0070189B28A
:100594002046218302F0E5FE05460028C1D041F043
:1005A400200121830025BCE7032809D1226923F017
:1005B4000703166843F00603002523832F46B1E79B
:1005C400042806D1226923F00703566843F0040384
:1005D400F2E7052806D1226923F00703966843F061
:1005E4000503E9E700252E46E8E7012341F0080169
:1005F40021838BF31188BFF36F8FFBB985BB16B1D1
:1006040020461F49B0474FF02003EFF3118B83F3CB
:100614001188BFF36F8F238B23F008032383238B6D
:10062400DA0625D5012123F010032383B4F81890AA
:1006340009F0070900297FF45EAF54E7A168002997
:10064400DCD0D1F800903B4652462046D1F804B0A5
:10065400D847B9F1000FD1D04946D9F80090F2E754
:1006640029463B46524620462D6802F096FEC5E7D1
:1006740013F020011EBF23F0200302212383D5E7BA
:10068400CB3300002DE9F04F8B4692461C460025E3
:1006940091B002909AF8000008B928465FE3252833
:1006A4000AF1010707D05946029B98470028C0F277
:1006B4005683013512E2182200210AA803F096F8A5
:1006C4009AF80130252B78D000221046964694469D
:1006D4001646394617F8013B2B2B00F09D8000F29B
:1006E4009480202B00F09B80232B00F09B802EB164
:1006F4009DF8306046F004068DF83060BCF1000FC0
:1007040005D09DF8306046F008068DF83060BEF1E3
:10071400000F05D09DF8306046F010068DF830606B
:1007240028B19DF8300040F020008DF830002AB147
:100734009DF8302042F040028DF830209DF83020A2
:1007440002F04400442803D16FF386128DF8302060
:100754009DF830202A2B42F080028DF830207BD186
:100764009DF831204B1C42F001028DF831201A789B
:100774002E2A0CBF012100219DF8312061F3410292
:100784008DF8312074D15A782A2A6AD000210A2699
:100794000133184610F8012BA2F13007092F40F25B
:1007A4008E809DF830200E91C2F3400040EAD17152
:1007B40061F341028DF830205AE00AF102078DF806
:1007C40033309DF83130D90740F1498154F8049B06
:1007D400B9F1000F07DA9DF83020C9F1000942F0A1
:1007E40004028DF830205A0740F1428154F8048BFA
:1007F400B8F1000F80F241819DF831306FF341036D
:100804008DF831304FF0FF3837E12D2B0CD0302BE1
:100814007FF46DAF01225CE74FF0010C59E74FF014
:10082400010E56E7012054E7012652E733460CFB3C
:100834000202303A1E4616F8010BA0F13007092FC8
:10084400F4D9994293D09DF830100D92D20F62F3EF
:1008540041018DF830108AE70B4600224FF00A0C54
:10086400E8E79DF83120023342F004028DF831208C
:100874001F4617F8012B6C2A41D025D8682A2BD0A3
:100884006A2A46D04C2A4CD01F4617F8012B9DF8F3
:100894003130782A8DF8332000F2D980572A4DD888
:1008A400412A03D0453A022A00F2D18004229DF85D
:1008B400323062F302038DF8323001239EE006FBEE
:1008C40001210346303964E7742A26D07A2ADBD121
:1008D40006229DF831300DE05A78682A9DF83120BF
:1008E40006D1012161F3C6028DF831209F1CCCE7AB
:1008F4001346022262F3C6038DF83130C5E75A78F5
:100904006C2A9DF8312001D10421EBE71346032220
:10091400F0E705229DF83130ECE707229DF83130ED
:10092400E8E7BDF8303023F4F04323F0020343F446
:10093400804343F00203ADF83030A6E7A2F158013A
:10094400202900F2848001A050F821F0150A00004B
:10095400530A0000530A0000530A0000530A00001F
:10096400530A0000530A0000530A0000530A00000F
:10097400B1080000530A0000150A0000D509000060
:10098400B1080000B1080000B1080000530A0000DB
:10099400D5090000530A0000530A0000530A00005E
:1009A400530A00001D0A0000150A0000390A00005D
:1009B400530A0000530A0000390A0000530A0000D9
:1009C400150A0000530A0000530A0000150A00002B
:1009D40001209DF8321003F0780360F30201402BEC
:1009E4008DF8321002BF9DF8301041F001018DF8EE
:1009F4003010632A31D1003B18BF01239DF8302009
:100A0400C2F340010B4363F341028DF83020D8E672
:100A140002209DF83210DEE703219DF8322003F016
:100A24007803A3F1400061F3020243428DF83220BF
:100A34004341E3E703219DF8322013F0780F61F37B
:100A4400020214BF012300238DF83220D6E79DF85B
:100A5400303043F001038DF830300023CEE79DF9A8
:100A64003020002AACBF4FF0FF39DDF83490BAE6ED
:100A74009B077FF5C7AEDDF838800023CDE90D3341
:100A84009DF832309DF8311003F00703012BC1F3B8
:100A9400C30138D1CB1E042B22D8DFE803F00309AD
:100AA4000921210054F8043BDA17CDE90A3206E0A3
:100AB400073424F00704F4E80223CDE90A239DF85F
:100AC400303013F0030656D03B465246594602983E
:100AD40002F042FD0028C0F242810544BA46D9E53D
:100AE40054F8043B01294FEAE372CDE90A3205D1F7
:100AF4009DF828300A9300230B93E0E70229DED106
:100B0400BDF92830D0E7022B23D1CB1E042B13D8F8
:100B1400DFE803F0030A0A12120000232268201DF2
:100B24000A920B930446CAE7E01D20F00700F0E8A0
:100B34000223CDE90A23F5E754F8043B01290A937B
:100B44004FF000030B93D3D00229B8D1BDF828305D
:100B5400D0E7042B09D1E31D23F0070303F10804B4
:100B6400D3E90023CDE90A23A9E7032B04BF54F8F2
:100B7400043B0A93A3E79DF833007828AED8622893
:100B840022D825283FF48FAD5828A7D1DDE90A01E2
:100B94000DF1260300930CAA04AB02F097FC8246E5
:100BA400B8F1000F0DF126000CDB9DF83020A0EB0E
:100BB4000A036FF3861298458DF8302002D9A8EB0A
:100BC40003030D9380463DE06338152886D801A2BF
:100BD40052F820F0590C0000BD0C0000E10A00009E
:100BE400E10A0000E10A0000E10A0000BD0C000077
:100BF400E10A0000E10A0000E10A0000E10A000045
:100C0400170D0000E50C0000E90C0000E10A0000EB
:100C1400E10A0000310C0000E10A0000E50C0000CC
:100C2400E10A0000E10A0000E50C0000B8F1000F41
:100C3400DDF828A00ADB4146504602F097FD002665
:100C44000AEB0008BAF1000F0CD147E7504602F056
:100C540086FDF4E700260A9B0DF1100A8DF810308A
:100C64000DF11108A8EB0A0306B101339DF83220F7
:100C7400D00668D5023352060D9948BF0E9A0B442C
:100C840048BF9B18B9F1000F76DD9DF83020A9EB21
:100C94000309C2F38003039353076DD4500661D54F
:100CA40046B159463046029B9847002857DB039BC0
:100CB40001351E46302356E01E070FD413F01006EC
:100CC40018BF2026DDE90A23002BBFF65FAF52428E
:100CD40063EB43032D26CDE90A2357E72B26F1E7DF
:100CE400002653E70A9840B30DF126030093002130
:100CF40004AB0CAA02F0EAFBBDF83230824603F0E2
:100D0400EF0343F4F04343F010030026ADF8323010
:100D140046E70A9B07293FF6E1AEDFE801F00C0441
:100D2400060C08080C0C1D70D8E61D80D6E6EA17E0
:100D3400C3E90052D2E61D60D0E6DFF8C8A006463B
:100D44000AF105088EE7110748BF013393E71846F7
:100D540003935946029B98470028039B04DA11B079
:100D6400BDE8F08F20234D444A46002AA5EB090133
:100D740009F1FF39EBDC0D4636B159463046029B8A
:100D840098470028EBDB01359DF83230D90601D4B1
:100D94001A0706D559463020029B98470028DEDB07
:100DA40001359DF83230DB0607D559469DF83300EE
:100DB400029B98470028D2DB01350D9E2E44731BFD
:100DC400002B16DC434652465946029802F0C4FBF7
:100DD4000028C4DB0544A944A9EB0503002B7FF7D5
:100DE4007DAE59462020029B98470028B7DB013589
:100DF400F2E759463020029B98470028AFDB0135C3
:100E0400DDE700BFB3410000054B03EB8000D0F8E1
:100E1400003223F0E04343F04053C0F800327047FF
:100E24000025845010B54FF02003EFF3118483F3B1
:100E34001188BFF36F8F01220B490C4B0020C3F8BC
:100E44000025C1F8D026FFF7DFFF1046FFF7DCFFCF
:100E5400C1F80427C1F80429C1F8002B84F31188D0
:100E6400BFF36F8F002010BD0040005000100050F1
:100E740048B1054B1A68054BB2FBF3F2044B5043DF
:100E840043F00103184770472000002040420F0040
:100E9400B040000082B002AB03E903009DF80030CB
:100EA400062B07D10122044BC3F80025BFF34F8F53
:100EB40020BFFDE702B0704700400050F8B505467A
:100EC4004FF02003EFF3118683F31188BFF36F8F84
:100ED400094B1C685CB1094FD4E90132002D08BFED
:100EE40013460BB1387898472468002CF4D186F364
:100EF4001188BFF36F8FF8BDB0010020B801002046
:100F040073B56D46104C0146284602F049FB95E83E
:100F1400030084E803002078A0B100230B4E0120D5
:100F24003360FFF7CBFFD4E90001FFF7B3FF30686C
:100F340038B901233360FFF7C1FFD4E9000102F09F
:100F440024FB207802B070BDB8010020040000200A
:100F540008B5064B186840B901221A60FFF7AEFFC6
:100F6400034B93E8030002F010FB08BD04000020CB
:100F7400B801002010B5074801F09EFB064C074B52
:100F84001860204600F056FE2046FFF787FA00203E
:100F940010BD00BFB9410000A50F0000C001002032
:100FA4000A2838B50446074D04D1286883680D2102
:100FB4005B68984728688368E1B25B689847204675
:100FC40038BD00BFC0010020084B70B5C31A0D46E0
:100FD40007499B10044659434022064802F000FB8F
:100FE4002B4601462046BDE870401847D801002032
:100FF400B76DDBB62C000020402373B50B4C009377
:10100400041B0B460D460A49A41061430646094ACF
:10101400094802F011FB011E05DA30462B4602B0E6
:10102400BDE87040184702B070BD00BFD801002071
:10103400B76DDBB6AD3600002C0000202DE9F84377
:10104400002201210646052000F0A0FA052000F048
:101054007FFA114801F034FA104B984219D102F08A
:10106400E8FC00244FF01C080C27DFF834903569A5
:10107400494608FB045002F0C3F9002807DB0123AA
:1010840007FB04551C44042CAB67F0D10020BDE8D9
:10109400F8836FF00400FAE7DD1000000000AD0BE8
:1010A400EC40000001460C2300224B43084870B575
:1010B400C4187833D4E91C561844226702F07DFA28
:1010C4002DB132462B46BDE870400248184770BD2A
:1010D400D80100202C000020052811D8DFE800F0FA
:1010E400030E10100C0A074B986F10F0070007D17D
:1010F400FFF7D8BF0220FBE70320F9E70120F7E759
:10110400704700BFD801002008B54FF02003EFF36B
:10111400118183F31188BFF36F8F124A136843F070
:10112400020013F0010310600CD04FF05022D2F8EB
:101134000C34D2F80C2413F0010303D00A4802F053
:101144003CFA012381F31188BFF36F8F23B1BDE80B
:1011540008400020FFF7A6BF0120BDE8084002F0C8
:1011640078BC00BF78020020500200201FB5002286
:101174000123CDE902236B46084ACDF800D0CDF80F
:1011840004D002F08AFA002805DB4FF480420023E1
:10119400684601F099FE05B05DF804FBE3360000F3
:1011A400074BD3E8EF2F22F00201C3E8E01F002829
:1011B400F7D1D30702D4012002F09ABC704700BFD4
:1011C400780200202DE9F041012207463749D1E891
:1011D400EF3FC1E8E02F0028F9D133B9344935484D
:1011E4004B60CB608A6002F01EF97B1E012B2FD866
:1011F400012F07D14FF05023D3F81C3403F003031D
:10120400022B25D002F0B3FD044618B92A4B1B78F3
:10121400002B44D14FF02003EFF3118683F31188A0
:10122400BFF36F8F01244FF05025DFF89080D5F87D
:101234001834D5F81824D2030CD503F00303022B79
:1012440001D0012F06D124B386F31188BFF36F8F29
:10125400BDE8F081C4B1304600F0F8F9D5F818358E
:10126400DBB2012BE3D1D5F80421002ADFD0002220
:10127400C5F80421D5F804210222C5F81825202236
:10128400C8F88021AB60D2E70021212001F08AFD5B
:10129400E4E74FF050230222C3F80423D8E74FF0C9
:1012A400502302220646C3F80823BCE77C02002030
:1012B400C8010020F40100209A03002000E100E0AE
:1012C400044A1368C81A20F07F400344136001F0F5
:1012D400A5BF00BF900200202DE9F0474FF48037EE
:1012E4004FF00009860000F1500406F15026A400D6
:1012F40006F58036A4B204F15024D6F84035DFF860
:101304006C8021F07F4504F580348740D8F804A52B
:10131400A3EB0A0323F07F432AF07F42012BC6F894
:10132400402502D1132002F028FD0AF10202AB1A73
:1013340023F07F43B3F5000F88BF1546C4F800902F
:10134400236825F07F43C8F84473C6F84035D8F8BD
:1013540004359A4506D0EB1A023B23F07F43B3F5DC
:10136400000F01D8BDE8F0872B46CFE700500150AD
:10137400F8B500252F46104C2668104B05B1F8BD72
:10138400D3F80423D203FAD5D3F84021002AF6D0A7
:10139400C3F84051D3F840214FF48032C3F84823B6
:1013A4000125D3F8401526B1002062682760B047B4
:1013B400E2E72660E3E700BF84020020005001500A
:1013C40038B500254FF480334FF400120C4C012142
:1013D400C4F80855C4F804330A4B1520C3F8802117
:1013E4002A4600F0D3F8152000F0B2F80123064A8B
:1013F400A360022023601360FFF7E4FE284638BD93
:101404000050015000E100E08C020020134AB0F1CA
:10141400FF3F14BF03461346013B002B1CDD9342E0
:10142400A8BF13460E4AD2F804050E4A1168401AA2
:1014340010F4000F18BF002320F07F4201320A4845
:1014440013440A4A106000205060044A934294BF37
:10145400C9188918FFF740BF0023E3E7FFFF7F00A7
:101464000050015090020020C512000084020020A8
:101474004FF02002EFF3118382F31188BFF36F8FD3
:10148400064AD2F80405064A1268801A20F07F4002
:1014940083F31188BFF36F8F704700BF0050015072
:1014A40090020020094A0A499368096858679967B5
:1014B40008494B6843F080534B60002383F3118841
:1014C400BFF36F8F9368986F704700BF5803002075
:1014D4009841000000ED00E013498A684FF03000A5
:1014E4001044EFF3098C80E8F01F202080F311886A
:1014F400BFF36F8F0D4F4FF000664A6A8A603E60FB
:10150400506F0023536780F3118802F1300090E894
:10151400F01F8CF3098802F1000004B502F0E8F82A
:10152400BDE80440704700005803002004ED00E0CB
:101534001EF0040F0CBFEFF30880EFF309808169FC
:1015440011F8021C0229FFD001B502F0D7F801BD41
:1015540043B2002B08DB012200F01F0002FA00F066
:10156400024A5B0942F82300704700BF00E100E033
:10157400054B420953F82220012300F01F0003FA0F
:1015840000F01040704700BF00E100E043B2002BC0
:1015940001F10101ACBF03F16043064B4FEA411175
:1015A400C9B2ABBF03F5614300F00F0083F8001329
:1015B4001954704714ED00E042F8203C009B0B499D
:1015C40042F81C3C019B21F0010142F8183C029BAB
:1015D40042F8081C42F8143C4FF0807342F8043C73
:1015E4000023203A02654367704700BFBD34000002
:1015F400044608B50E46154600F096F9084B9C6063
:10160400636E83F30B88284686F30988002163B64A
:1016140081F31188BFF36F8F0022002301F04CFF88
:1016240058030020014910220A60704710ED00E0C1
:1016340072B6404080F31188BFF36F8FBFF34F8FB2
:1016440030BF62B6BFF36F8F704700BF72B64940B8
:1016540081F3118820BF80F3118862B6704700BF00
:1016640030BFFFF7FDBF00BF0E4A08B50E4B22F096
:101674007F029A60BFF34F8FBFF36F8FD3F8882038
:1016840022F47002C3F88820EFF3148323F00403D8
:1016940083F3148801F050F801F0D6FC00F026F929
:1016A40001F06EF80000000000ED00E001B572B634
:1016B4000B4A106A00281EBF0021116202F0AEFA24
:1016C40062B6EFF30580A0F110004FEAC0000549AF
:1016D400014409C99847BDE801400349084700008F
:1016E40058030020583E0000D518000001F04BFFBD
:1016F400202080F3118808484FF40061401880F3DB
:101704000988EFF314800221084380F31488BFF39F
:101714006F8FFFF7A9FF0000E0080020EFF30880B7
:10172400EFF3098101B5724600F056F801BD00BF20
:10173400094B9A6A9A6A986A9A6A9A6A9A6A9A6A37
:101744009A6A10F480106FEA02426FEA124218BFDC
:1017540002209A62704700BF00ED00E00D4B9A6AC8
:101764009A6A9A6A920508D59A6B9A6A120404D501
:1017740018B19A6A22F400429A620020054B9A6AD0
:101784009A6AD20558BF9A6A9A6A42F47F429A6268
:101794000870704700ED00E00E4B9A6A9A6A9A6AE4
:1017A400920708D55A6B9A6A120604D518B19A6A38
:1017B40022F080029A620020064B9A6A9A6A9A6A18
:1017C400D20658BF9A6A9A6A42F0FF029A62087077
:1017D400704700BF00ED00E070B5364B0E465B6805
:1017E40000258AB0C3F3080385F31188BFF36F8F14
:1017F40002F07F41B1F17F4F11D102F00C010829B1
:101804000DD0110701D4064601250022033B8DF8B3
:101814000720032B46D8DFE803F0043D413A2E4667
:10182400F3E7244BDA6A92073CD4DC6A14F0804470
:1018340008D093F82820EAB101200DF10701FFF741
:10184400ABFF04469DF8073093B92022314602A825
:1018540001F0A1FF099B3DB3C3F3080222B96FEA6B
:1018640053236FEA43230993204602A901F044FF5E
:101874000AB070BD93F829202AB101200DF10701A7
:10188400FFF76CFFDDE7588D84B2002CDAD0FFF748
:101894004FFFD6E700200DF10701D0E700200DF13E
:1018A4000701EDE70024CDE723F4FF7323F00103E0
:1018B400D9E700BF00ED00E0044B5A6942F0100282
:1018C4005A615A6942F480625A61704700ED00E03F
:1018D400044B9968586A884203D003494FF08052F8
:1018E4000A6070475803002004ED00E00023202123
:1018F4000348C2180133452B82F80013F9D170470D
:1019040000E100E0064B9B68834207D1EFF30583B7
:1019140023B1044A536843F08053536001F062BA20
:101924005803002000ED00E01FB5094C094A234686
:101934000121094800F018F900230393074B012102
:10194400E41A01A80193029400F018F904B010BD40
:101954000000072000000020F8400000A80000203C
:1019640010B50B680C7A23F01F0204F01F031A430E
:10197400CB68640923F01F03054943EA440343F099
:101984000103C1F89800C1F89C20C1F8A03010BD33
:1019940000ED00E02DE9F04F0F46144606464FF0E7
:1019A4000008524D85B0B84509DAD6F80490B9F16B
:1019B400000F3BD0B9F11F0F05D86FF01504204676
:1019C40005B0BDE8F08F19F01F0FF6D1D6F800A0CE
:1019D4001AF01F0FF1D1504601F0B8FE834609EB0F
:1019E4000A00013801F0B2FE8345E6D11BF1160F5F
:1019F400E3D0631E5B45E0DBC5F898B0D5F89C10D6
:101A0400C5F898B0D5F8A03021F01F0143F01F0AA3
:101A1400D6E900321A44994202F1FF391ED1CA456F
:101A240008D131465FFA8BF001F073FE08F101082A
:101A34000C36B8E73146C5F898B0D5F89C3022F09A
:101A44001F0203F01F031A43C5F89C20E0B201F003
:101A540060FE10F1160FB0D0441CE7E7013BCA4505
:101A6400E0B223F01F03C5F898B008D1D5F8A02040
:101A7400314602F01F021343C5F8A030E7E7D5F85A
:101A8400A01001F01F010B43C5F8A030314601F04E
:101A940040FE10F1160F90D0C5F898B0D5F89C20F0
:101AA4009DF808300AF1FF3A62F304038DF8083018
:101AB400D5F8A0309DF808205B0863F347128DF831
:101AC4000820D6E900321344009323F01F03411C7D
:101AD4005344A3EB0903C8B223F01F03072803935D
:101AE4003FF66BAF6946FFF73BFFB5E700ED00E05B
:101AF4000522044BC3F89420BFF34F8FBFF36F8FBD
:101B0400704700BF00ED00E0BFF35F8F0022024B7F
:101B1400C3F89420704700BF00ED00E038B50E4DC7
:101B24002C68082C15D80020FFF7EEFF0B4B0C4A4D
:101B3400C3F8C020844205D10A4B00201C70FFF773
:101B4400D7FF38BD696801EB0011FFF709FF0130C9
:101B5400F0E74FF0FF30F4E70441000000ED00E04F
:101B6400AAFF44009803002010B5034C2278FFF725
:101B740011FF207010BD00BF980300202DE9F74F1E
:101B8400294D8A4606464FF00008AB46274FD045FC
:101B94001BDAD6F80490B9F1000F3FD0316808463B
:101BA400019101F0D3FD0199044609EB01000138CC
:101BB40001F0CCFD84424FF014021D4B08D06FF0AD
:101BC400150302FB08F84BF8083003B0BDE8F08FAA
:101BD40014F1160F2C60F8D01978A142F5DD02FB40
:101BE40008B0C7F89840C7F89840D7F89C4000F16F
:101BF4000801007B64F304000871D7F8A0000C7995
:101C0400400860F347140C71D7F89C1021F01F01B1
:101C14006960D7F8A01021F01F01296108F10108BB
:101C240014350C36B3E700BF9402002000ED00E049
:101C340098030020014B1860704700BF0800002083
:101C440008B5094B1A786AB901210D2019700521CC
:101C5400FFF79CFC0D20FFF77BFC4FF00042034B89
:101C6400C3F80423002008BD9903002000D00050CD
:101C74002A4BF0B544682A48134083423FD00DD81C
:101C8400062B15D005D89BB1022B3AD06FF0150066
:101C940034E0B3F5801FF9D1012309E021488342E0
:101CA40031D0B3F5A00F30D0B3F5800FEED10223BD
:101CB400D0064CBF0326C2F3401682F48075970504
:101CC400C2F34020C5F3002506D512F4006F6768FF
:101CD4001DD001228A40BA60277A134A134C01F0BE
:101CE4001F01012F08BF144640EA4502002042EAC2
:101CF400032343EA8603803144F82130F0BD0723EF
:101D0400D6E70423D4E70523D2E70323D0E752051B
:101D140042BF01228A40FA60DEE700BF0600F000FD
:101D24000600100002004000002884500025845062
:101D340010B5094B094C00F01F024009012808BFE7
:101D4400234603EB8203D3F8002222F4403242EA12
:101D54000142C3F8002210BD00258450002884509D
:101D6400F7B50026CDE90066284DD5F87C415CB175
:101D7400274801F0E2FD0090264801F0DEFD0190C5
:101D8400C5F87C61D5F87C310022012694462249AD
:101D94001E4DD5F8043306FA02F0184216D00B682B
:101DA400A3B102F5A27355F8233002AFC3F3403058
:101DB40007EB800050F8087CC3F3042306FA03F30E
:101DC4003B43C1F800C040F8083C0B680132082AC4
:101DD40001F10401DDD1009A22B1104B0C4958687D
:101DE40001F074FD019A22B10D4B0A49586801F0C3
:101DF4006DFD44B1064801F07AFD064803B0BDE824
:101E0400F04001F074BD03B0F0BD00BF00D000503D
:101E1400740000208C00002000D10050B00200208B
:101E2400CC020020F7B51446426801F01F05127A6F
:101E3400B4F5A03F0E46076945EA421510D163493F
:101E4400DFF88CC16809012808BF614605F01F024C
:101E5400803251F82220D00707D56FF022009AE093
:101E6400B4F5005FF96800F098800121FA68B14088
:101E74001143F960012100207A69B140B4F5A03F13
:101E84000CBF0A438A437A61BA69B3F5C02F0CBF09
:101E94000A438A43BA613A69B3F5802F0CBF1143F0
:101EA40022EA01014B4A3961D2F80433DBB200F56E
:101EB400A27152F82110C1F305218D4272D123FA87
:101EC40000F1C9076ED5830003F1A04303F5504325
:101ED400D3F8101521F00101C3F810150123834034
:101EE400C2F80833C0B200F06FFB28460021FFF7A8
:101EF4001FFFF868F04010F001004CD07869F04002
:101F040010F0010455D0BB690DF10700F340DB0765
:101F140057BF3969032621FA06F606F001065CBFAD
:101F2400C6F10206F6B200F06FFB2B4B98423DD18E
:101F340000209DF807202D02930003F1A04303F530
:101F44005043D3F8101505F47C5521F44F3121F496
:101F54004071C3F81015D3F810150D4345EA064631
:101F6400C3F81065930003F1A04303F551431860CF
:101F74009DF807101B688B0003F1A04303F5504341
:101F8400D3F8102542F00102C3F810250123114AA9
:101F94008B40C2F8043303B0F0BD0122B24021EA01
:101FA400020166E70130082881D19EE76FF0120034
:101FB400F1E739692846F14001F00101C1F103015B
:101FC400C9B2FFF7B5FE2046E5E700BF00258450FF
:101FD4000028845000D000500000AD0B036803F0CB
:101FE4001F020260034A04485B09012B08BF104624
:101FF400704700BF0028845000258450F0B54B7909
:10200400012B2BD0032B26D110278B79032B22D124
:10201400CD7925B1012D1ED143681B79DBB10A7935
:10202400012A1DD0022A1FD0AAB914460B6846689B
:10203400B3F5164F36686ED033D8B3F5165F6DD04E
:102044001CD8B3F5966F6BD010D8B3F5967F6AD0D1
:10205400B3F5167F6AD06FF022005BE00027D4E767
:102064004FF480740E22E1E70024FBE7B3F5166F0A
:102074005FD0B3F5965FEED1384B3EE0B3F5E14F58
:102084005AD007D8B3F5615F58D0B3F5964FE2D173
:10209400334B32E047F6122C6345DCD14FF4000396
:1020A4002BE0B3F5613F4BD013D8B3F5963F4AD03C
:1020B40009D84DF6C02C634547D0B3F5614FCAD15A
:1020C4004FF46B0319E0B3F5E13FC4D14FF0EB7368
:1020D40013E0B3F5612F3BD009D8DFF888C063451E
:1020E40039D0B3F5E12FB6D14FF0E86305E0DFF85E
:1020F40078C06345AFD14FF08053C6F824350369E7
:102104002C433A432243043303C9C6F86C2583E8BD
:1021140003000020F0BD4FF41D03EEE7134BECE782
:102124004FF49E23E9E74FF4A033E6E74FF41C3362
:10213400E3E74FF41D23E0E70D4BDEE70D4BDCE74F
:102144004FF06C73D9E70C4BD7E74FF46503D4E732
:102154004FF07063D1E74FF08063CEE700B0130017
:1021640000A04E0090D0030040420F000050270012
:1021740000C0750000F03A0000903A012DE9F041EA
:1021840006468846076901F0F2FDB8B9284B1B786A
:1021940083F001037268156893B14FF02003EFF3E5
:1021A400118483F31188BFF36F8F706801F00FFC03
:1021B40038BB84F31188BFF36F8FEEE70123E9E79F
:1021C4006424706801F003FC70B9012001F02FFC55
:1021D400013CF6D10021212000F0E4FDF0E784F376
:1021E4001188BFF36F8FF5E74FF02003EFF31184ED
:1021F40083F31188BFF36F8F706801F0E8FB002848
:10220400EDD00123002207F8108FC5F84475C5F8F6
:102214004835C5F82021D5F82011C5F85821D5F83E
:102224005821AB6084F31188BFF36F8FBDE8F08150
:102234009A0300202DE9F3470546002201210820D6
:10224400FFF7A4F90820FFF783F9002114276B682E
:102254002E691C684FF00108C4F8001501A8356008
:102264000197FFF7BBFE019B4FF0030908FA03F344
:10227400836001A80197FFF7B1FE4FF0160A019B96
:10228400803340F8239001A8CDF804A0FFF7A6FE00
:10229400019B803340F82310C4F80C751527C4F84B
:1022A40014A501A80197FFF799FE019B803340F81C
:1022B4002310132101A80191FFF790FE019B08FA56
:1022C40003F3836001A80191FFF788FE019B80332B
:1022D40040F82390C4F808152969C4F810752846F5
:1022E4000431FFF78BFE0746A8BB6B689B7993B15B
:1022F40006F1120000F04CF91A4B98422FD1B37C2E
:1023040043F00042C4F8A021C4F88C20164A08FA0D
:1023140003F3C2F804350823C4F800350023C4F8D5
:102324001031D4F8103106F11103C4F83435012307
:10233400C4F8383523606B689B791BB94FF48073FC
:10234400C4F8043300231036C4F84465C4F848358F
:102354000123A360E360384602B0BDE8F0876FF064
:102364000407F8E70000AD0B007001504FF47F0341
:10237400D3F83021072A07D1D3F83431023B032B99
:1023840002D8024AD05C704700207047ED4100003B
:102394004FF05023D3F85825034B02F00302D340E7
:1023A400024A1360704700BF0020A10720000020EC
:1023B40008B5FFF7DBFF58B13A4BD3F8202A3AB9F6
:1023C4000D21C3F8201A0121C3F81C19C3F81C29D4
:1023D4000022D30003F57F03D3F80013013107D0A3
:1023E400D3F800130132D3F80433202A0B60F0D160
:1023F400FFF7BCFF00284DD1FFF7B8FF40B12A4BCF
:102404002A4AC3F830254FF050230122C3F8582537
:102414004FF47F03D3F83031072B02BF0022244B43
:10242400C3F84C25FFF7A2FF50B14FF05023D3F867
:102434000024D10742BF0022C3F81421C3F8182195
:102444004FF47F03D3F83031072B09D14FF05023D9
:10245400D3F80024D20744BF6FF00102C3F800246C
:10246400FFF784FF18B165220E4BC3F80C27114AFD
:10247400D2F88C3043F44063C2F88C300E4A0F4BD0
:102484001168C3F84415D269C3F84C25BDE8084067
:10249400FFF77EBF2922034BC3F80C270322C3F89E
:1024A4003C27A9E700400050009003504400EFBED1
:1024B4000020035000ED00E00080FF0000600050A9
:1024C400044B1A7922B9012218601A710248704724
:1024D40002487047EC0200200000AD0B0C00AD0B6D
:1024E4004FF05023D3F8002110B552B10020C3F8A7
:1024F4000001D3F800210122C3F80823234B1B68F1
:1025040098474FF05023D3F804218AB10022C3F82E
:102514000421D3F80421D3F81824D3F8181402F0B2
:102524000302012A4FF0020128D1C3F818159A605A
:102534004FF05023D3F8202162B10022C3F82021A8
:10254400D3F820214FF48072C3F808230F4B0420E2
:102554001B6898474FF05023D3F82421AAB1BDE853
:1025640010400022C3F82421D3F824214FF4007230
:10257400C3F80823054B05201B681847C3F8081344
:10258400024B01201B689847D2E710BDEC020020E3
:1025940070B50A4C2168CE430ED00023DAB226FA75
:1025A40002F5ED0703F10103F8D5012393400B4332
:1025B40002700348236070BD0248FCE7F402002067
:1025C4000000AD0B0200AD0B012303FA00F0C3B20F
:1025D40093B14FF02003EFF3118183F31188BFF31C
:1025E4006F8F064AD36D23EA0000D06581F311880A
:1025F400BFF36F8F0248704702487047F80200200B
:102604000000AD0B0400AD0B2DE9F041FF220024C6
:1026140001260546DFF854E01548DFF85880E3B298
:102624004FF02001EFF3118C81F31188BFF36F8F0A
:1026340022FA03F1C9070AD5DEF85C1006FA03F79B
:10264400394201BF40463943CEF85C102B708CF3FD
:102654001188BFF36F8F404505D006FA03F39A4300
:1026640004F10104DBD1BDE8F08100BFF8020020D1
:102674000200AD0B0000AD0B0E4B70B553F82040BB
:10268400013053F82060A64200D870BDD4E900356B
:102694002846984765B1EB6830B10028B8BF40427E
:1026A400FF28A8BFFF2018705A7842F001025A7020
:1026B4000834E8E78441000070B5054610B90024E9
:1026C400204670BD0378002BF9D00E4C0E4EB44258
:1026D40008D10C4CB442F2D0204601F06FFA50B944
:1026E4001834F7E7204601F069FA10B12368AB42C9
:1026F400E6D01834EBE72846216801F040F80028BA
:10270400EED1DDE72C000020A400002008B5094C20
:102714004FF02002EFF3118382F31188BFF36F8F20
:1027240001F045FB2062FEF7EBFB0028F0D1FEF739
:102734007FFFEDE7580300200248034A0021121AE4
:1027440001F054B8A80000209C030020012208B521
:10275400094B02201A70FFF78FFF00F069FC032079
:10276400FFF78AFF00F008FCFDF780FE034A137BA5
:1027740023F00103137308BD9A03002028010020ED
:102784002DE98048354BA7B003F5006989F3088823
:1027940083F30A880024E023314D4FF0010B85F8C0
:1027A4002230EC772C766C76AC766B6A2D4E43F443
:1027B400E0236B62FFF780F8FEF734FF4FF0FF333E
:1027C400AB62EB6240F20113274DADF8243006AB47
:1027D400AB60CDE91F4401F0F0F92046FFF74CFF50
:1027E4000120FFF749FFDFF884A000F043FA204BF3
:1027F4006E624FF480621F49059330465346CDE91B
:10280400034BCDE90144009400F086FB737B8046C2
:1028140023F004033046737301F05FFA0F23164F5D
:102824004FF4A072CDE902431449154B3846CDE963
:1028340004B4CDE9005400F06FFB7B7B524623F0D7
:1028440004037B7305F1180341463046C5E906339A
:10285400EF602C75C5F80490FEF7CAFEE00800206E
:1028640000ED00E02801002058030020512700005B
:10287400F1410000A0030020A8000020A0070020D0
:102884001127000010B5084C23685BB1FEF7F0FD7A
:1028940003462068054A03440021BDE81040136143
:1028A40001F095BA10BD00BF90030020580300202A
:1028B400F8B504460D464FF02003EFF3118683F379
:1028C4001188BFF36F8F00214FF4004740F2E730C7
:1028D4000C4B4FF47A7219610023E4FB0701FDF7F6
:1028E40037FC002C084B09DC1860084B1D60FFF70F
:1028F400C9FF86F31188BFF36F8FF8BD0228B8BFF4
:102904000220F1E758030020900300208C030020EC
:1029140049B9EFF3058030B9054B5A6A9B689A426E
:1029240001D0FEF7BFBD81F31188BFF36F8F7047ED
:10293400580300204FF02003EFF3118183F3118833
:10294400BFF36F8F044B9A68D37B013BD37381F33E
:102954001188BFF36F8F70475803002038B50D4DB1
:10296400024605F1280001F088F9044600B9EC6834
:10297400AB684AB95A7BD20606D1A26922B9DA8970
:102984007F2A01D96B6238BD9C4201D0FFF77AFFE0
:102994006C62F8E75803002008B590F90D20014651
:1029A400002A437B04DA03F07F03437301F03DF90B
:1029B400044B9868431A58425841BDE80840FFF751
:1029C400CDBF00BF580300202DE9F041064615464F
:1029D4001C464FF02003EFF3118783F31188BFF3F4
:1029E4006F8F01F050F987F31188BFF36F8FB4F143
:1029F400FF3F08BFB5F1FF3F08D02A46234606F142
:102A040018000349BDE8F04100F084BBBDE8F08143
:102A1400FF3C000010B50C46064B11469868064B67
:102A24001860DDE90223FFF7CFFF2046BDE8104020
:102A3400FEF738BD580300208803002070B5044613
:102A4400183001F09EF94FF02003EFF3118683F361
:102A54001188BFF36F8F94F90D20637B002A05DA88
:102A640003F07F032046637301F0DFF80B4D637BB3
:102A7400A86843F010036373031B58425841FFF7DF
:102A84006DFF86F31188BFF36F8FAB68A34203D148
:102A9400BDE8704001F0E7B870BD00BF58030020E6
:102AA40010B54FF02003EFF3118483F31188BFF3C3
:102AB4006F8F084B00209A68D37B0133D373FFF7E1
:102AC4004DFF84F31188BFF36F8FBDE8104001F010
:102AD400CAB800BF5803002070B590F90D20014614
:102AE400002A437B04DA03F07F03437301F09DF86B
:102AF4004B7B154A63F07F034B7302F12805D2E93F
:102B04000A34AB421BD0D3B191F90E6093F90E0095
:102B140086420FD0801B00280CDD5868C1E90030C4
:102B2400016059609068BDE87040431A58425841AA
:102B3400FFF714BFA34202D01B68002BE6D1C1E902
:102B440000542160D162EDE758030020014638B5F6
:102B54004FF02003EFF3118483F31188BFF36F8FD9
:102B6400154B164A98681568A84206D1FFF78AFEE5
:102B740084F31188BFF36F8F38BD00251560104AA8
:102B84001268BAB1C2897F2A14D8427BD20611D105
:102B94000C4A90F90E50126895420BDB0A4A904297
:102BA40008D01A698A4202DCFFF796FFDEE7521A60
:102BB4001A61DDE70022FBE75803002088030020A8
:102BC400900300208C030020A800002070B490F92A
:102BD4000D20437B002A2ADBDA0628D1826932BB26
:102BE400144A63F07F03437302F12805D2E90A34DF
:102BF400AB4217D0B3B190F90E6093F90E108E4228
:102C04000BD0891B002908DD5A68C0E90032106026
:102C14005860002070BCFFF7A1BEA34202D01B681D
:102C2400002BEAD1C0E900542060D062F1E770BC07
:102C3400704700BF5803002010B54FF02002EFF397
:102C4400118482F31188BFF36F8F427B510704D440
:102C540084F31188BFF36F8F10BD22F00402427316
:102C6400FFF7B4FF2146BDE810400148FFF750BE0E
:102C74009B0300200021044B084603F12802C3E90A
:102C84000A22FFF715BE00BF580300202549F8B5F6
:102C94008A68254B9A423BD04FF02003EFF311850D
:102CA40083F31188BFF36F8F8868437B03F07F033E
:102CB400437300F0BAFF08468B685A7B62F07F02C8
:102CC4005A7350F8282F82421CD0DAB1CF6A93F994
:102CD4000E6092F90E40A6420FD0A41B002C0CDD0E
:102CE4005168C3E900210B6053600120FFF736FEF1
:102CF4002846BDE8F840FEF7D5BBBA4202D01268B8
:102D0400002AE6D1CA6AC3E900021360CB62ECE789
:102D14004FF02003EFF3118083F31188BFF36F8F1B
:102D2400E7E700BF58030020A800002050EA010391
:102D34002DE9F04105460E4604D1FFF7A7FF002018
:102D4400BDE8F08101F05DF804464FF02003EFF395
:102D5400118883F31188BFF36F8F0F4F0F4BB8683F
:102D64001860FFF719FEB8680D492A463346183033
:102D740000F0D0F9BA684046537B43F01003537314
:102D8400FEF790FB01F03DF86219101A63EB0303A0
:102D9400002BB8BF0020D3E758030020880300208D
:102DA400FF3C0000B1F1FF3F08BFB0F1FF3F08B5A1
:102DB40006D1084B9868FFF741FE4FF0FF3008BD7D
:102DC400FFF7B4FF4FF47A7380FB0303C00B40EAB0
:102DD4004340F4E758030020014B9868704700BF54
:102DE400580300202DE9F04104464FF02003EFF38F
:102DF400118683F31188BFF36F8F437B1A0705D5C0
:102E040086F31188BFF36F8FBDE8F08123F02002B1
:102E140042F00801D20920D14173A36813B12046BE
:102E240000F00BFF04F1180000F0ABFF4FF00008B6
:102E340004F15807A56DBD4200D0B5B90120FFF7D4
:102E44008DFD104B9B68A342DAD1EFF30583002B71
:102E5400D6D13046FEF726FBD2E703F05F0343F0FA
:102E64000803437300F0E1FED7E7284600F0E5FECF
:102E740005F1180000F085FF2846C5F87880FFF7B3
:102E8400A5FED7E75803002038B504464FF02003C9
:102E9400EFF3118583F31188BFF36F8F00F04FFFB9
:102EA40048B10022826700F018FF2946BDE8384087
:102EB4000448FFF72DBDD4E902329A4218BF01330A
:102EC400A360F2E79B03002013B54FF02004EFF357
:102ED400118184F31188BFF36F8F846844B1013C7E
:102EE400846081F31188BFF36F8F002002B010BD9E
:102EF40052EA030406D181F31188BFF36F8F6FF098
:102F04000F00F3E7CDE9002302460248FFF782FDF4
:102F1400ECE700BF9B0300202DE9FF410E9E00F16A
:102F2400580506730426C0E9165500250446467361
:102F34000D9EC0E906558673D61D0C9A26F0070629
:102F4400C0E919168560C573C56602920B9A01EB38
:102F5400060801920A9A00924246FEF72DFB054BA1
:102F640065659B6803B11B6F4046236704B0BDE8E9
:102F7400F08100BF580300202DE9F043294C2A4D6D
:102F840087B02646AE4204F130040FD3FFF7D2FCDB
:102F94004FF4004640F2E737224CDFF89090AC4201
:102FA40020D307B0BDE8F043FFF77ABD54F8043CE2
:102FB40054E90C01059354F8103C049354F8143C60
:102FC400039354F8183C029354F81C3C019354F8AE
:102FD400203C009354E90A23FFF79EFF54F8303C49
:102FE4005E65CEE7636A5A1C0DD00021384623EA99
:102FF400E373C3FB060151EAC333D4F8008004D160
:103004004046FFF719FE3034C9E74FF47A720023C3
:10301400FDF79EF802460B4608F11800494600F0F9
:1030240079F8F0E7A4000020A4000020FF3C000091
:10303400024A0349034800F087B900BF3C4200003C
:10304400F64100001642000008B50648064A074942
:10305400121A00F0A0FBBDE80840054A05490648DD
:1030640000F099BB00000020A400002040420000B2
:10307400000000004042000000000020034B1B68D9
:103084000BB9FEF7F5B90020704700BF9403002088
:10309400114B10B51C689C4208BF0024FFF7EEFFDB
:1030A40003466CB1D4E90402C01A62EBE37301284D
:1030B40073F100020DDBB0F1004F73F1000301DB8B
:1030C4006FF00040054B1B6913B19842A8BF184626
:1030D40010BD0020F6E700BF2400002058030020A4
:1030E40030B5036868B10A4A5268904209D043B1C6
:1030F400D3E90421D0E90445121941EB0501C3E9E0
:103104000421426813605A600023C0E9003330BDD3
:1031140024000020B3F1FF3F08BFB2F1FF3F2DE9C7
:10312400F84F05460E469146984665D06FF0010A61
:103134004FF0FF3B571C43F10004BAEB07036BEB62
:103144000403002B0FDBFFF799FF314BD3E9002475
:10315400BAEB02026BEB0404B2EB090264EB080461
:10316400171A64EBE074AE604FF02003EFF311869E
:1031740083F31188BFF36F8FFFF780FF012F74F182
:1031840000033A46BCBF01220024224F12183B68B8
:1031940044EBE074BB42C5E9042402D0D7F804C070
:1031A4002BB97B68C5E900731D607D6011E0D3E92C
:1031B4000414D5E904208A4270EB040E1EDA8A1A3C
:1031C40064EB0000C3E904205A68C5E900321560C5
:1031D4005D603B68BB420BD09D4209D1FFF758FFAD
:1031E40018B10D4B1B69834202D00021FEF70EF982
:1031F40086F31188BFF36F8FBDE8F88F521A60EB26
:1032040004006345C5E90420CBD01B68C8E700BFB0
:10321400A801002024000020580300202DE9F843D1
:103224000546FFF793FC4FF02003EFF3118483F37B
:103234001188BFF36F8F244EDFF890803560244DE2
:10324400D8F80000326840454FEAE277D5E9001E1D
:103254000BD050B1D0E9043C9A4277EB0C0916DA52
:103264009B1A6CEB070CC0E9043C52184EEB0707A1
:10327400C5E9002700253560FFF70AFF2946FEF758
:10328400C5F884F31188BFF36F8FBDE8F88359182C
:103294004EEBE377D31A336000220023C0E9042302
:1032A400C5E90017FFF71CFF84F31188BFF36F8F84
:1032B400836898474FF02003EFF3118483F3118858
:1032C400BFF36F8FBCE700BF9403002024000020ED
:1032D400A801002010B54FF02003EFF3118483F30D
:1032E4001188BFF36F8FFEF7C3F8054AD2E90031A6
:1032F400C01841F1000184F31188BFF36F8F10BD32
:10330400A801002048437047034658B1426802F0C0
:103314000302012A03D0032A04D1026812B1002057
:10332400986070476FF0150070474268034602F0DA
:103334000302032A4FF00002816014BF10460068A4
:103344005A607047002070470FB407B504A951F8BC
:10335400040B0191FDF7A8F803B05DF804EB04B089
:103364007047038B13F0070305D10368002B0CBFD0
:10337400002003207047022B05D1438B002B14BF80
:10338400002004207047012B05D10368002B0CBFDB
:10339400002005207047002070472DE9F0410D46BC
:1033A40007461946281D90461E46FFF7BEFF0446F1
:1033B40038B13346424629463846A446BDE8F04172
:1033C4006047BDE8F08110B44FF02004EFF31182A0
:1033D40084F31188BFF36F8F416110BC0121FDF7A5
:1033E40071B810B50C4640B139B1081DFFF78CFF18
:1033F40028B9A36833F0030301D06FF0150010BDA2
:1034040038B50C46054658B151B10B6843B14B6809
:1034140033B11C22002100F0E9F900202C6138BDF1
:103424006FF01500FBE770B504460E46FFF7D9FFB1
:10343400051E31DB4FF02003EFF3118183F3118874
:10344400BFF36F8F4FF6FF75638B208BAB4200F099
:1034540007022ED0022A0ED10133638315460123BD
:1034640081F31188BFF36F8FB3B100233146204637
:10347400FFF793FF10E0830701D0062A0ED1002343
:103484003360636893B9C4E90066154662B90A46B5
:1034940020460221FDF716F8284670BD052A0CBF08
:1034A4006FF022056FF004050023D9E71E60666003
:1034B400EBE76FF00A05F7E7044608B5084611463E
:1034C4001A46A047FFF788FCFEF71CFA2DE9F84FCF
:1034D4009A46D37880466F2B0F461546A3F1410BCD
:1034E40029D024D8582B14BF0A261026DDF828909A
:1034F4003246002340463946FCF72AFE092AD4B254
:103504001ED83034B045E4B277F1000309F8014D18
:1035140001D3D14511D82B789B0605D5082E15D19A
:10352400AB7843F00803AB704846BDE8F88F03F06E
:10353400F703702BD7E70826D8E780460F46D7E76E
:10354400BBF1190F94BF37345734DBE7102EEBD19E
:10355400AB7843F01003E6E72DE9F04107468846CF
:1035640015461E461446B442A4EB050002D33EB9E8
:1035740023782BB1414614F8010BB8470028F2DA3E
:10358400BDE8F0817047FEF713BF82B002AB03E9D8
:103594000300002383F31188BFF36F8F02B07047D9
:1035A40000220280426070470C220369C9B201FB09
:1035B4000233986F00F0070070474FF02003EFF3D9
:1035C400118283F31188BFF36F8F036803F0C00384
:1035D40043F00203036082F31188BFF36F8F7047D7
:1035E400034670B50069C9B24FF02004EFF31186A9
:1035F40084F31188BFF36F8F0C2505FB0104A46FBE
:1036040014F0C00401D0A24210D1012205FB010034
:103614008267002086F31188BFF36F8F28B95B6837
:1036240003EBC1014B689847002070BD4FF0FF3099
:10363400F0E78022FFF7D4BFF8B5069F054604697A
:10364400C9B24FF02000EFF3118C80F31188BFF35F
:103654006F8F0C2606FB0146B06F00F0070EBEF11B
:10366400010F11D1B76700268CF31188BFF36F8F58
:1036740046B90C2000FB0144C4E91C236B6853F8D1
:10368400313098473046F8BD00F0C000874214BF7F
:103694004FF0FF366FF04406E6E713B5802400943C
:1036A400FFF7CAFF02B010BD10B41C240069CBB2EE
:1036B40003FB0400002110BC1047032000F0C9B92B
:1036C400022000F0C6B9002000F0C3B9032000F0C6
:1036D4000FBA022000F00CBA002000F009BA10461C
:1036E400FFF7D2BB704770470021012000F004B8F7
:1036F400436E83F30B88704700F075BA0146006887
:1037040000F071BA08B5FDF7ABFFBDE80840FEF75D
:10371400DFB87FB50A894E890B684D6802F01F0235
:1037240042EA461200938DF8082023F01F036A1E14
:10373400134423F01F030728039304D86946FEF7B4
:103744000FF904B070BD6FF01500FAE740E800F31C
:1037540013F4803FD8B208BF6FF0150070470346DA
:1037640000201A5C02B970470130FAE703460020D2
:103774001A5C0AB1884200D170470130F8E7431E51
:10378400013913F8012F11F8010F824201D1002AE7
:10379400F7D1101A7047F0B581EA0004A507034673
:1037A4000BD0013B0A4491421BD1F0BD002AFCD04E
:1037B40011F8014B013A03F8014B9C07F6D122F0B2
:1037C40003041D1F96080F19B94205D16FF00305B4
:1037D400234405FB0622E4E751F804CB45F804CF63
:1037E400F2E711F8014B03F8014FDCE770B504462A
:1037F400C9B2A30711D141EA012343EA034522F0E8
:103804000303960823449C420DD16FF0030404FB88
:1038140006221A44934209D170BD002AFCD004F850
:10382400011B013AE5E744F8045BECE703F8011BEC
:10383400F0E74FF0FF307047436800205B681B6976
:103844000B60704743685B68586842400A404240D6
:103854005A6000207047436800205B689960704795
:10386400436800205B68D9607047436800205A6849
:1038740053684B4053607047036930B5586858B17A
:103884000024814212D108689D6854B98D42586061
:1038940000D19860002008606AB9002030BD284635
:1038A400EFE78D42206008BF9C60F3E7056804469B
:1038B400002DF4D13AB15A6898680A60596000281A
:1038C400EBD19960EAE76FF01500E7E770B50E46B3
:1038D4001546014650B104688A682A4002D0304631
:1038E4004B68984714B121462468F5E770BD2DE96B
:1038F400F041012600250769D0F80480FC68D7E967
:103904000532134324EA03040CB9BDE8F0812642CE
:1039140010D0396998F80830E94001F00101C1F18B
:10392400030105F01F00C9B240EA4310FEF700FA94
:1039340024EA060401357600E6E72DE9F041012684
:1039440000270369D0F80480DC68D3E905210A4321
:1039540024EA0204D8F804201B6915695D4024EAAE
:10396400050514B92846BDE8F08134420AD098F818
:10397400080007F01F03002143EA4010FEF7D8F9BE
:1039840024EA060401377600EBE70B460269D2E924
:10399400010183E803000020704743681B68D3F8E3
:1039A4008004C3F880047047436802691B68D3F835
:1039B400100148B10020527C0A70C3F81001D3F8FA
:1039C400102101221A6070474FF0FF3070470268DF
:1039D4000346D2F8580138B99B7933B9D2F820019B
:1039E400003818BF012070470120704743681B68E6
:1039F400D3F80423D20518D5D3F82021AAB14FF067
:103A04002001EFF3118281F31188BFF36F8FD3F894
:103A1400201131B10021C3F82011D3F82011012164
:103A2400D96082F31188BFF36F8F7047004700F0AD
:103A3400A4B908B50520FDF79BFD10B90520FDF7D5
:103A440087FD4FF050230122C3F81425C3F88025C5
:103A540008BD03284BD8DFE800F002232F3D4FF0C8
:103A64005022D2F81834D2F81814C90312D503F02E
:103A74000303022B0ED1C2F818354FF05023002255
:103A8400C3F80421D3F804210222C3F80423012239
:103A94009A6070474FF050230122C3F81825ECE7D1
:103AA4004FF050230022C3F80021D3F80021012253
:103AB400C3F804231A6070474FF050230022C3F860
:103AC4002421D3F824214FF40072C3F804230122E3
:103AD4001A6270474FF050230022C3F82021D3F814
:103AE40020214FF48072C3F8042301229A617047A5
:103AF40070B5044603283DD8DFE800F002213D4BB1
:103B04004FF050230222C3F808230022C3F80421F3
:103B1400D3F804210122DA6042F210754FF05026E6
:103B2400022C44D0032C45D024BBD6F81834DB0334
:103B340020D50120FFF77BFF013DF1D11AE04FF0C2
:103B440050240123002242F21075C4F80833C4F84B
:103B54000021D4F800216360D4F80C34D4F80C2488
:103B640003F00103D20305D523B10120FFF75FFF62
:103B7400013DF1D170BD4FF050234FF40072C3F8F2
:103B840008230022C3F82421D3F8242101225A62F5
:103B9400C2E74FF050234FF48072C3F80823002289
:103BA400C3F82021D3F820210122DA61B4E7D6F842
:103BB4005C34BCE7D6F85434B9E77047C368188856
:103BC400C0F30800A0F580735842584170474FF085
:103BD4002002EFF3118382F31188BFF36F8FFEE7A6
:103BE40008B5FFF7F4FFF8B505460E464FF020037D
:103BF400EFF3118783F31188BFF36F8FFFF7ECF8AE
:103C0400314604462846FFF7EBFF87F31188BFF3DC
:103C14006F8F2046BDE8F840FDF774BE08B5FDF788
:103C240097F9BDE80840FFF75EBDD0E900321360A4
:103C34005A600023C0E90033704708B5FFF7F5FF69
:103C4400437B23F0020343730023836008BD0346D0
:103C540020B9EFF305820AB9FDF724BC83F3118878
:103C6400BFF36F8F70474FF02003EFF3118083F39E
:103C74001188BFF36F8FFFF7EABF034600688342E2
:103C840008BF0020704738B504460D46FEF784FE91
:103C9400637B43F00203637395B12B68A5609D4277
:103CA40015D0A3B194F90E1093F90E20914208D0C7
:103CB400521A002A05DD5A68C4E9003214605C60B7
:103CC40038BD6A68934202D01B68002BECD16B6844
:103CD400C4E900531C606C60F2E710B54FF0200398
:103CE400EFF3118483F31188BFF36F8FFEF76EFF38
:103CF40084F31188BFF36F8F10BD014610B54FF0E8
:103D04002003EFF3118483F31188BFF36F8F10F84E
:103D14000B3C13F0280F0DD151F8103C18380BB19F
:103D2400FFF78BFF11F80B3C23F0140301F80B3C55
:103D3400FEF74CFF84F31188BFF36F8F10BD38B5C5
:103D44004FF02003EFF3118583F31188BFF36F8FD6
:103D5400FFF793FF044620B1FFF76FFF183000F020
:103D640010F885F31188BFF36F8F204638BDEFF349
:103D74000580003818BF0120704708B1FDF778B8F6
:103D8400704710B54FF02002EFF3118482F31188CD
:103D9400BFF36F8F03683BB1FFF7A2F9002084F3F0
:103DA4001188BFF36F8F10BD6FF01500F7E710B5E2
:103DB4004FF02003EFF3118483F31188BFF36F8F67
:103DC400FFF766F984F31188BFF36F8F10BD70B5E8
:103DD40004460D464FF02003EFF3118683F3118858
:103DE400BFF36F8FFFF754F9012805DDA04203DB11
:103DF40029462046FDF70AFB86F31188BFF36F8F2F
:0C3E040070BD08B5FFF766FA08BD7047F6
:083E100074C3FF7F01000000F4
:103E1800290E000000000000211B00000000000027
:103E2800411000002C00002039220000440000202E
:103E3800790F000000000000C51300005C0000209E
:103E4800451C00008C000020451C00007400002068
:103E580000000000ED36000000000000ED36000014
:103E680000000000ED36000000000000ED36000004
:103E780000000000ED360000E5240000313A0000A3
:103E880000000000ED36000000000000ED360000E4
:103E980044000020F139000000000000ED36000069
:103EA80000000000ED36000000000000ED360000C4
:103EB80000000000ED36000000000000651D000055
:103EC80000000000ED36000000000000ED360000A4
:103ED80000000000ED36000000000000ED36000094
:103EE80000000000ED36000000000000ED36000084
:103EF80000000000ED36000000000000751300000F
:103F080000000000ED36000000000000ED36000063
:103F180000000000ED36000000000000ED36000053
:103F280000000000ED36000000000000ED36000043
:103F380000000000ED36000000000000ED36000033
:103F480000000000ED36000000000000ED36000023
:103F580000000000ED36000000000000ED36000013
:103F680000000000ED36000000000000ED36000003
:103F780000000000ED36000000000000ED360000F3
:103F880000000000ED36000000000000ED360000E3
:103F980000000000ED36000000000000ED360000D3
:103FA80000000000ED36000000000000ED360000C3
:103FB80000000000ED36000000000000ED360000B3
:103FC80000000000ED36000000000000ED360000A3
:103FD80000000000ED36000000000000ED36000093
:103FE80000000000ED36000000000000ED36000083
:103FF80000000000ED36000000000000ED36000073
:1040080000000000ED36000000000000ED36000062
:1040180000000000ED36000000000000ED36000052
:1040280000000000ED36000000000000ED36000042
:1040380000000000ED36000000000000ED36000032
:1040480000000000ED36000000000000ED36000022
:1040580000000000ED36000000000000ED36000012
:1040680000000000ED36000000000000ED36000002
:0840780000000000ED3600001D
:10408000FF7FFF7FFF7FFF7FFF7FFF7FFF7FFF7F40
:10409000FF7FFF7FFF7FFF7FFF7FFF7FFF7FFF7F30
:0A40A000FF7FFF7FFF7FFF7FFF7FA0
:0640AA00FFFFFFFFFFFF16
:1040B0000338FDD87047000071110000373600004A
:1040C0009F36000000000000AD3500000D1100001B
:1040D000A5110000CB360000DD360000C53600001B
:1040E000D7360000BF360000D1360000FD0F0000BB
:1040F000CD0F0000000000000000002000000000C4
:1041000006000100020000000C4100000000000059
:10411000D041000006000000E0FF0F00000000207A
:10412000D841000021000000E0FF0620751C0000BF
:104130003D380000493800005B3800006538000059
:104140006F380000291E00007D38000000000000CC
:10415000FFFFFFFF0025845000000000FFFF00006C
:104160000028845001000000AD39000081210000CA
:104170009F390000012000008F39000000800050AE
:1041800006000100183E0000403E0000483E0000CE
:10419000583E0000583E0000F5FFFFFF25642074E4
:1041A000696D657320256420657175616C732025C8
:1041B000640A00286E696C2900554152545F300032
:1041C000434C4F434B007379735F636C6F636B00B9
:1041D000464C4153485F30005352414D5F300047D9
:1041E00050494F5F31004750494F5F300001000098
:1041F000006D61696E007A65706879722D76322E75
:10420000352E302D3838352D673039313663353815
:104210006336383938002A2A2A20426F6F74696E53
:1042200067205A6570687972204F53206275696CF7
:1042300064202573202573202A2A2A0A0000000002
:104240004933000001000000373800000000000082
:1042500000C2010000010300000000000000000097
:0C4260000090D003240000202400002067
:10426C00C0410000CC400000B8400000C401002058
:10427C00D8010020A0400000B94100007C410000A2
:10428C0068410000E80200200C000020964000006D
:10429C00C641000000000000000000008002002069
:1042AC000000000090400000E6410000504100007A
:1042BC002C410000AC020020B0020020884000001D
:1042CC00DF4100005C4100002C410000A8020020EE
:0842DC00CC020020804000002C
:04000003000016F1F2
:00000001FF
